:020000040800F2
:100000001804002045010008BD030008C3020008D1
:10001000B90300088D010008C507000800000000B2
:1000200000000000000000000000000005050008BE
:100030009101000800000000BF030008F30500085C
:100040005F0100085F0100085F0100085F01000810
:100050005F0100085F0100085F0100085F01000800
:100060005F0100085F0100085F0100085F010008F0
:100070005F0100085F0100085F0100085F010008E0
:100080005F0100085F0100085F0100085F010008D0
:100090005F0100085F0100085F0100085F010008C0
:1000A0005F0100085F0100085F0100085F010008B0
:1000B0005F0100085F0100085F0100085F010008A0
:1000C0005F0100085F0100085F0100085F01000890
:1000D0005F0100085F0100085F0100085F01000880
:1000E0005F0100085F0100085F0100085F01000870
:1000F0005F0100085F0100085F0100085F01000860
:100100005F0100085F0100085F0100085F0100084F
:100110005F0100085F0100085F0100085F0100083F
:100120005F0100085F0100085F0100085F0100082F
:10013000DFF80CD000F018F800480047F10700087D
:10014000180400200648804706480047FEE7FEE7FF
:10015000FEE7FEE7FEE7FEE7FEE7FEE7FEE7FEE777
:10016000F505000831010008064C074D06E0E0687F
:1001700040F0010394E8070098471034AC42F6D3EE
:10018000FFF7DAFF84080008A408000800BFFEE7B4
:1001900070472DE9F041024600250026002000238B
:1001A0000024002791F803C00CF00F0591F803C05C
:1001B0000CF0100CBCF1000F03D091F802C04CEA17
:1001C000050591F800C0BCF1000F31D01468002083
:1001D0002BE04FF0010C0CFA00F3B1F800C00CEA70
:1001E00003069E4220D183004FF00F0C0CFA03F758
:1001F000BC4305FA03FC4CEA040491F803C0BCF1CB
:10020000280F06D14FF0010C0CFA00FCC2F814C004
:100210000AE091F803C0BCF1480F05D14FF0010C82
:100220000CFA00FCC2F810C0401C0828D1D314609E
:10023000B1F800C0BCF1FF0F34DD546800202EE09F
:1002400000F1080C4FF0010808FA0CF3B1F800C0F7
:100250000CEA03069E4221D183004FF00F0C0CFAEA
:1002600003F7BC4305FA03FC4CEA040491F803C00D
:10027000BCF1280F05D100F1080C08FA0CF8C2F8FF
:10028000148091F803C0BCF1480F07D100F1080CAD
:100290004FF0010808FA0CF8C2F81080401C08283A
:1002A000CED35460BDE8F0810246002093680B4035
:1002B0000BB1012000E000207047416170470161EF
:1002C000704700BFFEE770B505460C4645F2555035
:1002D00000F02CF8284600F01DF8204600F020F829
:1002E00000F010F800F002F870BD00004CF6CC40B1
:1002F00001490860704700000030004010B500F070
:1003000001F810BD4AF6AA200149086070470000B4
:100310000030004001494860704700000030004054
:1003200001498860704700000030004001490860C2
:10033000704700000030004008B50121042000F0A3
:100340003FF80120ADF8000004208DF80300694655
:100350000148FFF71EFF08BD0008014070B50446C4
:100360000D4629462046FFF79FFF012808D100BF10
:1003700029462046FFF798FF0128F9D0012070BDDB
:100380000020FCE738B504460121082000F018F8E9
:10039000A0B2ADF8000010208DF8030003208DF806
:1003A000020069460348FFF7F4FEA1B20148FFF7D7
:1003B00086FF38BD000C014000BFFEE77047704764
:1003C00029B1064A92690243044B9A6104E0034A48
:1003D00092698243014B9A6170470000001002400D
:1003E0000348406A40F0807001494862704700004D
:1003F0000010024030B500210022002400232D4DC2
:100400006D6805F00C0121B1042905D0082923D11C
:1004100005E0294D056022E0274D05601FE0254DD0
:100420006D6805F47012234D6D6805F48034022563
:1004300005EB92421CB9214D554305600BE01D4D63
:100440006D6805F400351DB11C4D5543056002E093
:10045000194D5543056002E0174D056000BF00BF10
:10046000144D6D6805F0F0010909154D6B5C0568C8
:10047000DD4045600F4D6D6805F4E061090A104DDF
:100480006B5C4568DD4085600A4D6D6805F4605120
:10049000C90A0B4D6B5C4568DD40C560054D6D6854
:1004A00005F44041890B074D6B5CC568B5FBF3F55E
:1004B000056130BD0010024000127A0000093D00C5
:1004C000000000201000002010B50146002200238B
:1004D00000204A11012A02D1094C236806E0022AB1
:1004E00002D1074C236A01E0054C636A01F01F0248
:1004F000012494401C400CB1012000E0002010BDFC
:1005000000100240704710B500F002F810BD000066
:100510000CB50020019000903348006840F4803012
:100520003149086000BF3048006800F40030009096
:100530000198401C0190009818B90198B0F5A06F7F
:10054000F1D12948006800F4003010B1012000907A
:1005500001E0002000900098012843D12348006862
:1005600040F01000214908600846006820F00300B0
:1005700008600846006840F0020008601A484068B9
:10058000194948600846406848600846406840F499
:10059000806048600846406820F47C104860084647
:1005A000406840F4E81048600846006840F08070F9
:1005B000086000BF0C48006800F000700028F9D007
:1005C0000948406820F00300074948600846406831
:1005D00040F00200486000BF0348406800F00C0093
:1005E0000828F9D10CBD0000001002400020024094
:1005F0007047704710B51348006840F0010011497A
:10060000086008464068104908400E49486008469E
:1006100000680E4908400B4908600846006820F44D
:10062000802008600846406820F4FE0048604FF4CF
:100630001F008860FFF767FF4FF000600449086003
:1006400010BD0000001002400000FFF8FFFFF6FEA2
:1006500008ED00E021B1828942F40052828104E079
:1006600082894DF6FF731A408281704700B585B0CC
:1006700001210420FFF7A4FE01218803FFF7A0FE5B
:100680004FF40070ADF8100018208DF8130003200F
:100690008DF8120004A91348FFF77BFD4FF480602A
:1006A000ADF8100004208DF8130004A90D48FFF7E1
:1006B00070FD4FF4E13000900020ADF80400ADF87B
:1006C0000600ADF80800ADF80C000C20ADF80A00EB
:1006D0006946054800F00AF801210348FFF7BAFF10
:1006E00005B000BD00080140003801402DE9F04789
:1006F00086B005460E460024A24600BFA14600274C
:10070000B08900B100BF2F462C8A4CF6FF70044020
:10071000F08804432C82AC894EF6F3100440B08874
:1007200031890843718908430443AC81AC8A4FF690
:10073000FF400440B0890443AC8201A8FFF75AFE91
:100740001F48874202D1DDF810A001E0DDF80CA0BF
:10075000A88900F4004040B10AEBCA0000EB0A107F
:1007600031684900B0FBF1F807E00AEBCA0000EB82
:100770000A1031688900B0FBF1F86420B8FBF0F092
:1007800004012009642101FB1089A88900F40040BC
:1007900040B1322000EBC900B0FBF1F000F00700DF
:1007A000044308E0322000EB09106421B0FBF1F0B3
:1007B00000F00F0004432C8106B0BDE8F087000074
:1007C0000038014000BFFEE702E008C8121F08C160
:1007D000002AFAD170477047002001E001C1121FC2
:1007E000002AFBD1704700E0401E0028FCD1704772
:1007F00000BFFFF73BFF0120FFF7C4FD2020FFF7FC
:10080000C1FD0220FFF7BEFDFFF7F2FE7D20FFF7DE
:100810005BFEA0B120211848FFF74FFD1748FFF7F6
:10082000E2FF20211448FFF74AFD1448FFF7DBFFE1
:1008300020211148FFF741FDFFF7D2FD03E002211F
:100840000D48FFF73AFDFFF777FD40F271210420D4
:10085000FFF739FD0FE001210948FFF77FFD01286F
:1008600009D120210448FFF72AFDFFF747FD0121A8
:100870000148FFF722FDEEE7000C0140FFFF0F00EB
:1008800000080140A4080008000000201400000037
:10089000C8070008B808000814000020040400007D
:1008A000D80700080000000001020304010203044D
:0808B00006070809020406080E
:0400000508000131BD
:00000001FF
