:020000040800F2
:1000000018040020490100083104000829040008F0
:100010002D04000891010008090B000800000000F1
:10002000000000000000000000000000490500087A
:100030008102000800000000330400085506000893
:100040006301000863010008630100086301000800
:1000500063010008630100086301000863010008F0
:1000600063010008630100086301000863010008E0
:1000700063010008630100086301000863010008D0
:1000800063010008630100086301000863010008C0
:1000900063010008630100086301000863010008B0
:1000A00063010008630100086301000863010008A0
:1000B0006301000863010008630100086301000890
:1000C0006301000863010008630100086301000880
:1000D0006301000863010008630100086301000870
:1000E0006301000863010008630100086301000860
:1000F0006301000863010008630100086301000850
:10010000630100086301000863010008630100083F
:10011000630100086301000863010008630100082F
:10012000630100086301000863010008630100081F
:10013000DFF810D000F01AF800480047350B00082F
:10014000AFF30080180400200648804706480047A7
:10015000FEE7FEE7FEE7FEE7FEE7FEE7FEE7FEE777
:10016000FEE7FEE75906000831010008064C074D7E
:1001700006E0E06840F0010394E807009847103477
:10018000AC42F6D3FFF7D8FF740B0008940B0008BD
:1001900000BFFEE708B50121092000F05BF901214D
:1001A0000F4800F0F9F82020ADF8000018208DF875
:1001B000030003208DF8020069460A4800F061F848
:1001C0000120ADF800006946064800F05AF8022008
:1001D000ADF800006946034800F053F808BD000080
:1001E00000081A00000C014010B5FFF7D3FF00F023
:1001F00001F810BD00B587B00121022000F01AF906
:10020000FF20ADF8140040F2CF70ADF810000020D0
:10021000ADF81600ADF8120004A9184800F06AFB0A
:100220006020ADF800000120ADF802000020ADF81C
:1002300006000220ADF808006946104800F054FAA4
:1002400008210E4800F0A2FA69460C4800F0ACFA0A
:1002500008210A4800F0F8FA6946084800F0FEFA5A
:100260000821064800F038FB0121044800F024FA78
:100270000121024800F02CFA07B000BD0004004044
:1002800070472DE9F041024600250026002000239A
:100290000024002791F803C00CF00F0591F803C06B
:1002A0000CF0100CBCF1000F03D091F802C04CEA26
:1002B000050591F800C0BCF1000F31D01468002092
:1002C0002BE04FF0010C0CFA00F3B1F800C00CEA7F
:1002D00003069E4220D183004FF00F0C0CFA03F767
:1002E000BC4305FA03FC4CEA040491F803C0BCF1DA
:1002F000280F06D14FF0010C0CFA00FCC2F814C014
:100300000AE091F803C0BCF1480F05D14FF0010C91
:100310000CFA00FCC2F810C0401C0828D1D31460AD
:10032000B1F800C0BCF1FF0F34DD546800202EE0AE
:1003300000F1080C4FF0010808FA0CF3B1F800C006
:100340000CEA03069E4221D183004FF00F0C0CFAF9
:1003500003F7BC4305FA03FC4CEA040491F803C01C
:10036000BCF1280F05D100F1080C08FA0CF8C2F80E
:10037000148091F803C0BCF1480F07D100F1080CBC
:100380004FF0010808FA0CF8C2F81080401C082849
:10039000CED35460BDE8F081F0B50A4600230024B6
:1003A0000021002500F00046B6F1004F02D11D4E9D
:1003B000F16901E01B4E7168C0F3034583B200F49C
:1003C0004016B6F5401F08D121F07061154E7668D1
:1003D00026F07066134F7E6012E000F48016B6F5CA
:1003E000801F06D1032606FA05F4A14341F070618F
:1003F00006E0460D360103FA06F6B14341F070619E
:1004000022B1460D360103FA06F6314300F00046EC
:10041000B6F1004F02D1034EF16101E0014E71606F
:10042000F0BD00000000014000BFFEE700BFFEE796
:100430007047704729B1064AD2690243044BDA611A
:1004400004E0034AD2698243014BDA61704700003D
:100450000010024029B1064A92690243044B9A6196
:1004600004E0034A92698243014B9A61704700009D
:100470000010024030B500210022002400232D4D41
:100480006D6805F00C0121B1042905D0082923D19C
:1004900005E0294D056022E0274D05601FE0254D50
:1004A0006D6805F47012234D6D6805F480340225E3
:1004B00005EB92421CB9214D554305600BE01D4DE3
:1004C0006D6805F400351DB11C4D5543056002E013
:1004D000194D5543056002E0174D056000BF00BF90
:1004E000144D6D6805F0F0010909154D6B5C056848
:1004F000DD4045600F4D6D6805F4E061090A104D5F
:100500006B5C4568DD4085600A4D6D6805F460519F
:10051000C90A0B4D6B5C4568DD40C560054D6D68D3
:1005200005F44041890B074D6B5CC568B5FBF3F5DD
:10053000056130BD0010024000127A0000093D0044
:1005400000000020100000207047000010B5C0F32C
:100550000741C0F30722C3B2034C2180241D22802F
:10056000241D238010BD00003804004010B500F0A9
:1005700001F810BD0CB500200190009033480068D0
:1005800040F480303149086000BF3048006800F412
:10059000003000900198401C0190009818B9019813
:1005A000B0F5A06FF1D12948006800F4003010B117
:1005B0000120009001E0002000900098012843D124
:1005C0002348006840F01000214908600846006890
:1005D00020F0030008600846006840F00200086050
:1005E0001A4840681949486008464068486008460B
:1005F000406840F4806048600846406820F47C1001
:1006000048600846406840F4E810486008460068C2
:1006100040F08070086000BF0C48006800F0007077
:100620000028F9D00948406820F0030007494860D5
:100630000846406840F00200486000BF0348406838
:1006400000F00C000828F9D10CBD00000010024099
:10065000002002407047000010B51348006840F0C9
:1006600001001149086008464068104908400E49D9
:100670004860084600680E4908400B490860084673
:10068000006820F4802008600846406820F4FE00DE
:1006900048604FF41F008860FFF768FF4FF000606C
:1006A0000449086010BD0000001002400000FFF87F
:1006B000FFFFF6FE08ED00E021B1028842F0800263
:1006C000028004E002884FF67F731A400280704770
:1006D00021B1028842F00102028004E002884FF654
:1006E000FE731A400280704770B500240022002378
:1006F000058C4FF6EF7635400584028C8388048B99
:1007000048F6FF752C404FF6FF452C400D884FF6FC
:10071000FF7606EA05252C434FF6DF752A400D8942
:1007200006EA05152A434D8806EA05152A43154DA4
:10073000A84202D0144DA8421DD14FF67F752A4021
:100740004D894FF6FF7606EA05152A434FF6BF7529
:100750002A408D8806EA05152A434FF6FF352B40BF
:100760004FF2FF752B408D8906EA85052B43CD8915
:1007700006EA85052B4383800483CD8805870284A0
:1007800070BD0000002C0140003401400A460021E9
:10079000018B4FF2FF7319404FF6FF7303EA0223F8
:1007A000194301837047000070B500240022002324
:1007B000058C4FF6FF6635400584028C8388848B58
:1007C0004FF68F752C404FF6FC752C400D882C434E
:1007D0004FF6FF552A400D894FF6FF7606EA0525AC
:1007E0002A434D8806EA05252A43154DA84202D022
:1007F000144DA8421DD14FF2FF752A404D894FF686
:10080000FF7606EA05252A434FF6FF352A408D88F4
:1008100006EA05252A434EF6FF752B404DF6FF7577
:100820002B408D8906EA05152B43CD8906EA05156F
:100830002B4383808483CD888587028470BD00002C
:10084000002C0140003401400A460021818B4FF604
:10085000F7731940114381837047000070B500227F
:1008600000230024058C4EF6FF7635400584038C6A
:100870008488828B48F6FF752A404FF6FF452A4050
:100880000D884FF6FF7606EA05252A434DF6FF75DB
:100890002B400D8906EA05352B434D8806EA0535C0
:1008A0002B430B4DA84202D00A4DA84208D14BF66B
:1008B000FF752C408D894FF6FF7606EA85152C438F
:1008C00084808283CD88A0F84050038470BD0000EE
:1008D000002C0140003401400A460021818B4FF278
:1008E000FF7319404FF6FF7303EA02231943818314
:1008F00070470000002202881D4B98420ED01D4B0D
:1009000098420BD0B0F1804F08D01B4B984205D0D5
:100910001A4B984202D01A4B984204D14FF68F736B
:100920001A404B881A43174B984207D0164B9842EF
:1009300004D04FF6FF431A40CB881A4302808B88BD
:1009400083850B8803850A4B98420BD0094B98424C
:1009500008D00E4B984205D00D4B984202D00D4B5B
:10096000984201D10B7A03860123838270470000ED
:10097000002C014000340140000400400008004009
:10098000000C0040001000400014004000400140F6
:10099000004401400048014021B1828942F40052E4
:1009A000828104E082894DF6FF731A40828170478C
:1009B00000B585B001210420FFF74CFD012188031B
:1009C000FFF748FD4FF40070ADF8100018208DF8C7
:1009D000130003208DF8120004A91348FFF751FCFF
:1009E0004FF48060ADF8100004208DF8130004A9C6
:1009F0000D48FFF746FC4FF4E13000900020ADF8C1
:100A00000400ADF80600ADF80800ADF80C000C20AD
:100A1000ADF80A006946054800F00AF801210348CC
:100A2000FFF7BAFF05B000BD0008014000380140E3
:100A30002DE9F04786B005460E460024A24600BFC9
:100A4000A1460027B08900B100BF2F462C8A4CF682
:100A5000FF700440F08804432C82AC894EF6F310FA
:100A60000440B08831890843718908430443AC814C
:100A7000AC8A4FF6FF400440B0890443AC8201A821
:100A8000FFF7F8FC1F48874202D1DDF810A001E013
:100A9000DDF80CA0A88900F4004040B10AEBCA00C0
:100AA00000EB0A1031684900B0FBF1F807E00AEBEF
:100AB000CA0000EB0A1031688900B0FBF1F864202D
:100AC000B8FBF0F004012009642101FB1089A8891A
:100AD00000F4004040B1322000EBC900B0FBF1F05F
:100AE00000F00700044308E0322000EB0910642105
:100AF000B0FBF1F000F00F0004432C8106B0BDE81C
:100B0000F08700000038014000BFFEE702E008C89F
:100B1000121F08C1002AFAD170477047002001E077
:100B200001C1121F002AFBD1704700E0401E0028BF
:100B3000FCD17047FFF73CFFFFF756FB11E0094877
:100B4000FFF704FD0848FFF7F0FF0848FFF7FEFC39
:100B50000548FFF7EAFF0648FFF7F8FC0248FFF7F1
:100B6000E4FFECE7FF808000FFFF0F0080FF8000C4
:100B70008080FF00940B000800000020140000009B
:100B80000C0B0008A80B000814000020040400004F
:100B90001C0B000800000000010203040102030412
:080BA00006070809020406081B
:0400000508000131BD
:00000001FF
