:020000040800F2
:10000000F804002049010008450300083D030008EA
:1000100041030008910100089D0A0008000000004B
:10002000000000000000000000000000ED040008D7
:100030009501000800000000F5030008D90500083C
:100040006301000863010008630100086301000800
:1000500063010008630100086301000863010008F0
:1000600063010008630100086301000863010008E0
:1000700063010008630100086301000863010008D0
:1000800063010008630100086301000863010008C0
:1000900063010008630100086301000863010008B0
:1000A00063010008630100086301000863010008A0
:1000B000630100083D0600086301000863010008B1
:1000C0006301000863010008630100086301000880
:1000D0006301000863010008630100086301000870
:1000E0006301000863010008630100086301000860
:1000F0006301000863010008630100086301000850
:10010000630100086301000863010008630100083F
:10011000630100086301000863010008630100082F
:10012000630100086301000863010008630100081F
:10013000DFF810D000F01AF800480047BF0A0008A6
:10014000AFF30080F80400200648804706480047C7
:10015000FEE7FEE7FEE7FEE7FEE7FEE7FEE7FEE777
:10016000FEE7FEE7DD05000831010008064C074DFB
:1001700006E0E06840F0010394E807009847103477
:10018000AC42F6D3FFF7D8FFCC0A0008EC0A00080F
:1001900000BFFEE770472DE9F0410246002500262A
:1001A000002000230024002791F803C00CF00F0565
:1001B00091F803C00CF0100CBCF1000F03D091F8C3
:1001C00002C04CEA050591F800C0BCF1000F31D027
:1001D000146800202BE04FF0010C0CFA00F3B1F88A
:1001E00000C00CEA03069E4220D183004FF00F0CA2
:1001F0000CFA03F7BC4305FA03FC4CEA040491F83B
:1002000003C0BCF1280F06D14FF0010C0CFA00FC22
:10021000C2F814C00AE091F803C0BCF1480F05D140
:100220004FF0010C0CFA00FCC2F810C0401C08286A
:10023000D1D31460B1F800C0BCF1FF0F34DD5468B5
:1002400000202EE000F1080C4FF0010808FA0CF332
:10025000B1F800C00CEA03069E4221D183004FF0A2
:100260000F0C0CFA03F7BC4305FA03FC4CEA040438
:1002700091F803C0BCF1280F05D100F1080C08FA71
:100280000CF8C2F8148091F803C0BCF1480F07D1F4
:1002900000F1080C4FF0010808FA0CF8C2F81080C1
:1002A000401C0828CED35460BDE8F081F0B50A4662
:1002B000002300240021002500F00046B6F1004F85
:1002C00002D11D4EF16901E01B4E7168C0F3034578
:1002D00083B200F44016B6F5401F08D121F07061DA
:1002E000154E766826F07066134F7E6012E000F4BB
:1002F0008016B6F5801F06D1032606FA05F4A14341
:1003000041F0706106E0460D360103FA06F6B1438E
:1003100041F0706122B1460D360103FA06F6314311
:1003200000F00046B6F1004F02D1034EF16101E04A
:10033000014E7160F0BD00000000014000BFFEE70B
:1003400000BFFEE7704708B54FF4C06000F048F802
:100350001D208DF8000000208DF8010002208DF88E
:10036000020001208DF80300684600F001F808BD86
:1003700070B5002100230F22C47804B3154C246803
:1003800004F4E064C4F5E064210AC1F10403CA4046
:10039000447804FA03F184781440214309010E4C97
:1003A0000678A155047804F01F050124AC400578B7
:1003B0006D11AD0005F1E025C5F8004109E00478B4
:1003C00004F01F050124AC40044D0678761145F871
:1003D000264070BD0CED00E000E400E080E100E0AC
:1003E00002490143024A1160704700000000FA050B
:1003F0000CED00E07047000029B1064A9269024303
:10040000044B9A6104E0034A92698243014B9A616A
:10041000704700000010024030B500210022002487
:1004200000232D4D6D6805F00C0121B1042905D084
:10043000082923D105E0294D056022E0274D0560FC
:100440001FE0254D6D6805F47012234D6D6805F4AD
:100450008034022505EB92421CB9214D55430560BD
:100460000BE01D4D6D6805F400351DB11C4D554365
:10047000056002E0194D5543056002E0174D056027
:1004800000BF00BF144D6D6805F0F0010909154D5E
:100490006B5C0568DD4045600F4D6D6805F4E061FB
:1004A000090A104D6B5C4568DD4085600A4D6D683A
:1004B00005F46051C90A0B4D6B5C4568DD40C560B1
:1004C000054D6D6805F44041890B074D6B5CC568AF
:1004D000B5FBF3F5056130BD0010024000127A0053
:1004E00000093D000000002010000020704710B5FA
:1004F00000F002F810BD00000CB500200190009043
:100500003348006840F480303149086000BF30480B
:10051000006800F4003000900198401C01900098A1
:1005200018B90198B0F5A06FF1D12948006800F41E
:10053000003010B10120009001E0002000900098F0
:10054000012843D12348006840F010002149086089
:100550000846006820F0030008600846006840F084
:10056000020008601A484068194948600846406817
:1005700048600846406840F480604860084640682B
:1005800020F47C1048600846406840F4E810486059
:100590000846006840F08070086000BF0C480068A2
:1005A00000F000700028F9D00948406820F00300EE
:1005B000074948600846406840F00200486000BFB4
:1005C0000348406800F00C000828F9D10CBD000079
:1005D00000100240002002407047000010B5134890
:1005E000006840F001001149086008464068104961
:1005F00008400E494860084600680E4908400B490B
:1006000008600846006820F48020086008464068BA
:1006100020F4FE0048604FF41F008860FFF767FF7A
:100620004FF000600449086010BD00000010024057
:100630000000FFF8FFFFF6FE08ED00E010B5012115
:10064000164800F046F838B315480088401C144995
:10065000088014481449098830F811000F493831CE
:1006600008800F48008811490988884210DD0E482B
:100670000088401C0C490880084600880C490988FD
:10068000884202DB002008490880002004490880D5
:100690000121024800F00EF810BD000000040040E7
:1006A000180000201A00002016000020140000206E
:1006B000F6000020CA430282704721B1028842F04E
:1006C0000102028004E002884FF6FE731A400280A5
:1006D000704730B50246002000230024158A05EA41
:1006E0000103958905EA010413B10CB1012000E072
:1006F000002030BD1AB183890B43838102E08389D6
:100700008B4383817047000070B5002400220023D2
:10071000058C4FF6EF7635400584028C8388048B78
:1007200048F6FF752C404FF6FF452C400D884FF6DC
:10073000FF7606EA05252C434FF6DF752A400D8922
:1007400006EA05152A434D8806EA05152A43154D84
:10075000A84202D0144DA8421DD14FF67F752A4001
:100760004D894FF6FF7606EA05152A434FF6BF7509
:100770002A408D8806EA05152A434FF6FF352B409F
:100780004FF2FF752B408D8906EA85052B43CD89F5
:1007900006EA85052B4383800483CD880587028480
:1007A00070BD0000002C0140003401400A460021C9
:1007B000018B4FF2FF7319404FF6FF7303EA0223D8
:1007C0001943018370470000002202881D4B9842A4
:1007D0000ED01D4B98420BD0B0F1804F08D01B4B70
:1007E000984205D01A4B984202D01A4B984204D135
:1007F0004FF68F731A404B881A43174B984207D015
:10080000164B984204D04FF6FF431A40CB881A4348
:1008100002808B8883850B8803850A4B98420BD016
:10082000094B984208D00E4B984205D00D4B984288
:1008300002D00D4B984201D10B7A038601238382AB
:1008400070470000002C01400034014000040040CB
:1008500000080040000C0040001000400014004060
:1008600000400140004401400048014010B500F044
:1008700003F800F021F810BD08B501210920FFF7A9
:10088000BBFD01210920FFF7B7FD01210848FFF753
:100890000DFD2020ADF8000018208DF80300032086
:1008A0008DF8020069460348FFF775FC08BD00009B
:1008B00000081A00000C014000B587B00121022099
:1008C000FFF79AFD40F2FF30ADF81400C720ADF8F5
:1008D00010000020ADF81600ADF8120004A912486F
:1008E000FFF772FF6020ADF800000120ADF80200B4
:1008F0000020ADF806000220ADF8080069460A485D
:10090000FFF702FF08210848FFF750FF01210648C2
:10091000FFF7D3FE012211460348FFF7EBFEFFF776
:1009200012FD07B000BD00000004004021B1828923
:1009300042F40052828104E082894DF6FF731A402E
:100940008281704700B585B001210420FFF754FD76
:1009500001218803FFF750FD4FF40070ADF810003F
:1009600018208DF8130003208DF8120004A91348F5
:10097000FFF711FC4FF48060ADF8100004208DF8F3
:10098000130004A90D48FFF706FC4FF4E130009076
:100990000020ADF80400ADF80600ADF80800ADF891
:1009A0000C000C20ADF80A006946054800F00AF872
:1009B00001210348FFF7BAFF05B000BD0008014060
:1009C000003801402DE9F04786B005460E46002468
:1009D000A24600BFA1460027B08900B100BF2F4644
:1009E0002C8A4CF6FF700440F08804432C82AC89BA
:1009F0004EF6F3100440B0883189084371890843EA
:100A00000443AC81AC8A4FF6FF400440B0890443F4
:100A1000AC8201A8FFF700FD1F48874202D1DDF834
:100A200010A001E0DDF80CA0A88900F4004040B15E
:100A30000AEBCA0000EB0A1031684900B0FBF1F87C
:100A400007E00AEBCA0000EB0A1031688900B0FB2E
:100A5000F1F86420B8FBF0F004012009642101FBE7
:100A60001089A88900F4004040B1322000EBC90091
:100A7000B0FBF1F000F00700044308E0322000EB87
:100A800009106421B0FBF1F000F00F0004432C8149
:100A900006B0BDE8F08700000038014000BFFEE767
:100AA00002E008C8121F08C1002AFAD17047704737
:100AB000002001E001C1121F002AFBD17047FFF79F
:100AC00041FFFFF7D3FE00BFFEE70000EC0A00087D
:100AD00000000020F8000000A00A0008E40B000855
:100AE000F800002000040000B00A00080000000028
:100AF00001020304010203040607080902040608B0
:100B00000A000000000001000100010001000200D5
:100B100002000200020003000300040004000500BC
:100B2000050006000700080009000A000B000D0080
:100B30000F0011001300160019001C0020002400F3
:100B400029002F0035003D0045004F005900660088
:100B5000740083009500AA00C100DB00FA001C01AC
:100B600043016F01A101DA011B026502B9021803FA
:100B700085030004000485031803B90265021B0203
:100B8000DA01A1016F0143011C01FA00DB00C10081
:100B9000AA00950083007400660059004F004500CC
:100BA0003D0035002F002900240020001C00190002
:100BB0001600130011000F000D000B000A000900C1
:100BC00008000700060005000500040004000300FB
:100BD0000300020002000200020001000100010007
:040BE00001006E00A2
:0400000508000131BD
:00000001FF
