:020000040800F2
:10000000200400204901000815030008E10200084F
:1000100011030008BD01000863080008000000008B
:100020000000000000000000000000000D040008B7
:10003000C101000800000000170300086106000865
:100040006301000863010008630100086301000800
:1000500063010008630100086301000863010008F0
:1000600063010008630100086301000863010008E0
:1000700063010008630100086301000863010008D0
:1000800063010008630100086301000863010008C0
:1000900063010008630100086301000863010008B0
:1000A00063010008630100086301000863010008A0
:1000B0006301000863010008630100086301000890
:1000C0006301000863010008630100086301000880
:1000D0006301000863010008630100086301000870
:1000E0006301000863010008630100086301000860
:1000F0006301000863010008630100086301000850
:10010000630100086301000863010008630100083F
:10011000630100086301000863010008630100082F
:10012000630100086301000863010008630100081F
:10013000DFF810D000F030F800480047A90A0008A6
:10014000AFF300802004002006488047064800479F
:10015000FEE7FEE7FEE7FEE7FEE7FEE7FEE7FEE777
:10016000FEE7FEE7650600083101000830B50B46E2
:10017000014600202022012409E021FA02F59D42D7
:1001800005D303FA02F5491B04FA02F52844151EAB
:10019000A2F10102F1DC30BD064C074D06E0E0683B
:1001A00040F0010394E8070098471034AC42F6D3BE
:1001B000FFF7C2FFE00B0008000C000800BFFEE7DD
:1001C00070472DE9F041024600250026002000235B
:1001D0000024002791F803C00CF00F0591F803C02C
:1001E0000CF0100CBCF1000F03D091F802C04CEAE7
:1001F000050591F800C0BCF1000F31D01468002053
:100200002BE04FF0010C0CFA00F3B1F800C00CEA3F
:1002100003069E4220D183004FF00F0C0CFA03F727
:10022000BC4305FA03FC4CEA040491F803C0BCF19A
:10023000280F06D14FF0010C0CFA00FCC2F814C0D4
:100240000AE091F803C0BCF1480F05D14FF0010C52
:100250000CFA00FCC2F810C0401C0828D1D314606E
:10026000B1F800C0BCF1FF0F34DD546800202EE06F
:1002700000F1080C4FF0010808FA0CF3B1F800C0C7
:100280000CEA03069E4221D183004FF00F0C0CFABA
:1002900003F7BC4305FA03FC4CEA040491F803C0DD
:1002A000BCF1280F05D100F1080C08FA0CF8C2F8CF
:1002B000148091F803C0BCF1480F07D100F1080C7D
:1002C0004FF0010808FA0CF8C2F81080401C08280A
:1002D000CED35460BDE8F081416170470161704741
:1002E00000BFFEE738B504460121082000F014F8ED
:1002F000A0B2ADF8000010208DF8030003208DF8A7
:10030000020069460148FFF75CFF38BD000C014060
:1003100000BFFEE77047704729B1064A9269024361
:10032000044B9A6104E0034A92698243014B9A614B
:10033000704700000010024030B500210022002468
:1003400000232D4D6D6805F00C0121B1042905D065
:10035000082923D105E0294D056022E0274D0560DD
:100360001FE0254D6D6805F47012234D6D6805F48E
:100370008034022505EB92421CB9214D554305609E
:100380000BE01D4D6D6805F400351DB11C4D554346
:10039000056002E0194D5543056002E0174D056008
:1003A00000BF00BF144D6D6805F0F0010909154D3F
:1003B0006B5C0568DD4045600F4D6D6805F4E061DC
:1003C000090A104D6B5C4568DD4085600A4D6D681B
:1003D00005F46051C90A0B4D6B5C4568DD40C56092
:1003E000054D6D6805F44041890B074D6B5CC56890
:1003F000B5FBF3F5056130BD0010024000127A0034
:1004000000093D000000002010000020704710B5DA
:1004100000F002F810BD00000CB500200190009023
:100420003348006840F480303149086000BF3048EC
:10043000006800F4003000900198401C0190009882
:1004400018B90198B0F5A06FF1D12948006800F4FF
:10045000003010B10120009001E0002000900098D1
:10046000012843D12348006840F01000214908606A
:100470000846006820F0030008600846006840F065
:10048000020008601A4840681949486008464068F8
:1004900048600846406840F480604860084640680C
:1004A00020F47C1048600846406840F4E81048603A
:1004B0000846006840F08070086000BF0C48006883
:1004C00000F000700028F9D00948406820F00300CF
:1004D000074948600846406840F00200486000BF95
:1004E0000348406800F00C000828F9D10CBD00005A
:1004F000001002400020024010B513A000F0B4F933
:100500004FF4E1311CA000F0AFF922A000F0ACF9EB
:100510002DA000F0A9F932A000F0A6F934A000F057
:10052000A3F937A000F0A0F939A000F09DF93CA094
:1005300000F09AF93EA000F097F941A000F094F97C
:1005400043A000F091F910BD0D0A20D5E2CAC7D230
:10055000BBB8F6CDA8B9FDB4AEBFDACDA8D0C5D62C
:10056000B8C1EEBFD8D6C6524742B5C4B2CAB5C6A6
:10057000CAB5D1E90A000000CAB9D3C355534152E4
:1005800054B2CECAFDCEAAA3BA20256420382D6E5F
:100590002D310A00BFAAB7A2B0E5BDD3B5BDD6B80C
:1005A000C1EEBAF3BFD8D6C6524742B2CAB5C6B535
:1005B000C4D1D5C9ABA3AC20D6B8C1EEB6D4D3A6AE
:1005C000C8E7CFC2A3BA0A00D6B8C1EE202D2D2DA0
:1005D0002D2D20B2CAB5C6D1D5C9AB0A0000000086
:1005E000092031202D2D2D2D2D20BAEC0A000000E0
:1005F000092032202D2D2D2D2D20C2CC0A000000E7
:10060000092033202D2D2D2D2D20C0B60A000000ED
:10061000092034202D2D2D2D2D20BBC60A000000D1
:10062000092035202D2D2D2D2D20D7CF0A0000009B
:10063000092036202D2D2D2D2D20C7E00A00000089
:10064000092037202D2D2D2D2D20B0D70A00000098
:10065000092038202D2D2D2D2D20C3F00A0000005B
:100660007047000010B51348006840F001001149C0
:10067000086008464068104908400E49486008462E
:1006800000680E4908400B4908600846006820F4DD
:10069000802008600846406820F4FE0048604FF45F
:1006A0001F008860FFF7B3FE4FF000600449086048
:1006B00010BD0000001002400000FFF8FFFFF6FE32
:1006C00008ED00E021B1828942F40052828104E009
:1006D00082894DF6FF731A408281704700B585B05C
:1006E00001210420FFF718FE01218803FFF714FE03
:1006F0004FF40070ADF8100018208DF8130003209F
:100700008DF8120004A91348FFF75BFD4FF48060D9
:10071000ADF8100004208DF8130004A90D48FFF770
:1007200050FD4FF4E13000900020ADF80400ADF82A
:100730000600ADF80800ADF80C000C20ADF80A007A
:100740006946054800F018F801210348FFF7BAFF91
:1007500005B000BD000801400038014002460020FD
:10076000B1F5007F00D100BF13880B400BB1012011
:1007700000E00020704700002DE9F04786B00546F4
:100780000E460024A24600BFA1460027B08900B152
:1007900000BF2F462C8A4CF6FF700440F0880443BB
:1007A0002C82AC894EF6F3100440B088318908439E
:1007B000718908430443AC81AC8A4FF6FF40044082
:1007C000B0890443AC8201A8FFF7B6FD1F488742F9
:1007D00002D1DDF810A001E0DDF80CA0A88900F43A
:1007E000004040B10AEBCA0000EB0A103168490032
:1007F000B0FBF1F807E00AEBCA0000EB0A10316821
:100800008900B0FBF1F86420B8FBF0F00401200986
:10081000642101FB1089A88900F4004040B1322016
:1008200000EBC900B0FBF1F000F00700044308E062
:10083000322000EB09106421B0FBF1F000F00F0052
:1008400004432C8106B0BDE8F08700000038014069
:1008500001468888C0F308007047C1F3080282800F
:10086000704700BFFEE700000FB4054B10B503A9A9
:10087000044A029800F018F810BC5DF814FB000060
:10088000810A00081800002002E008C8121F08C1F1
:10089000002AFAD170477047002001E001C1121F01
:1008A000002AFBD1704700002DE9FF4F8BB09A461C
:1008B0000F460546002606E025280BD052460D9926
:1008C00090476D1C761C28780028F5D10FB0304673
:1008D000BDE8F08F0024A0460122604900E00443F7
:1008E00015F8013F203B02FA03F00842F7D12878BF
:1008F0002E2817D115F8010F44F004042A280ED031
:100900006FF02F022878A0F1300109290AD808EBEE
:10091000880102EB410100EB01086D1CF2E757F87A
:10092000048B6D1C287869283ED006DC0028CDD0C9
:1009300063280BD0642804D136E0732810D07528C2
:100940004BD052460D999047761C85E017F8040B62
:100950008DF8000000208DF80100E946012003E039
:1009600057F8049B4FF0FF3061074FF0000401D4AB
:100970000AE0641C44450DDA8442FADB19F80410DD
:100980000029F6D106E0641C8442FCDB19F804104F
:100990000029F8D1264404E019F8010B52460D99BC
:1009A0009047641EF8D257E001CF4FF00A0B0028A1
:1009B00002DA40422D2102E0210504D52B218DF8D9
:1009C0002410012103E0E10705D02021F7E70DF114
:1009D000200908910CE00021F9E701CF4FF00A0B44
:1009E000F9E75946FFF7C2FB01F1300209F8012D82
:1009F0000028F6D1ADEB090000F1200B600701D40F
:100A00004FF00108D84502DDA8EB0B0000E0002004
:100A10008046002406E009A85246005D0D999047E3
:100A2000641C761C08988442F5DB04E030205246B2
:100A30000D999047761CB8F10001A8F10108F5DC8A
:100A400005E019F8010B52460D999047761CBBF151
:100A50000001ABF1010BF4DC6D1C34E70928010047
:100A600010B5044600BF20210448FFF777FE002898
:100A7000F9D00248FFF7ECFE10BD0000003801403D
:100A800070B504460D46E1B20548FFF7E6FE00BF2B
:100A900080210348FFF762FE0028F9D0204670BD90
:100AA00000380140FFF7DCBF0124FFF717FE0120EB
:100AB000FFF718FC2020FFF715FC0220FFF712FCBF
:100AC000FFF71AFD7DE03F48FFF7ECFFC4B2214677
:100AD0003DA0FFF7C9FEA4F1310008286DD2DFE880
:100AE00000F004111E2B3845525F20213B48FFF7D0
:100AF000F3FB01213948FFF7F1FB02213748FFF7EB
:100B0000EDFB5DE020213548FFF7E8FB012133488C
:100B1000FFF7E2FB02213148FFF7E0FB50E0202124
:100B20002E48FFF7DBFB01212C48FFF7D7FB022102
:100B30002A48FFF7D1FB43E020212848FFF7CCFBF0
:100B400001212648FFF7C8FB02212448FFF7C6FB16
:100B500036E020212148FFF7BFFB01211F48FFF7A6
:100B6000BDFB02211D48FFF7B7FB29E020211B48F0
:100B7000FFF7B4FB01211948FFF7AEFB022117482C
:100B8000FFF7AAFB1CE020211448FFF7A5FB012179
:100B90001248FFF7A1FB02211048FFF79DFB0FE071
:100BA00020210E48FFF79AFB01210C48FFF796FB26
:100BB00002210A48FFF792FB02E0FFF79DFC00BF0D
:100BC00000BF80E714000020BDD3CAD5B5BDB5C4B1
:100BD000D7D6B7FBA3BA2563200A0000000C01405A
:100BE000000C0008000000201C000000880800081D
:100BF0001C0C00081C0000200404000098080008D9
:100C000000000000010203040102030406070809B2
:0C0C1000020406080000000000000000C4
:0400000508000131BD
:00000001FF
