:020000040800F2
:100000006804002045010008490400088103000835
:1000100045040008530200083D0D000800000000E0
:10002000000000000000000000000000590A000865
:1000300057020008000000004B040008450B0008B0
:100040005F0100085F0100085F0100085F01000810
:100050005F0100085F0100085F0100085F01000800
:100060005F0100085F0100085F0100085F010008F0
:100070005F0100085F0100085F0100085F010008E0
:100080005F0100085F0100085F0100085F010008D0
:100090005F0100085F0100085F0100085F010008C0
:1000A0005F0100085F0100085F0100085F010008B0
:1000B0005F0100085F0100085F0100085F010008A0
:1000C0005F0100085F0100085F0100085F01000890
:1000D0005F0100085F0100085F0100085F01000880
:1000E0005F0100085F0100085F0100085F01000870
:1000F0005F0100085F0100085F0100085F01000860
:100100005F0100085F0100085F0100085F0100084F
:100110005F0100085F0100085F0100085F0100083F
:100120005F0100085F0100085F0100085F0100082F
:10013000DFF80CD000F04AF80048004765100008CE
:10014000680400200648804706480047FEE7FEE7AF
:10015000FEE7FEE7FEE7FEE7FEE7FEE7FEE7FEE777
:10016000490B0008310100082DE9F05F0546002029
:1001700092469B4688460646814640241BE0284618
:1001800041464746224600F042F853465A46C01AB6
:10019000914110D311461846224600F029F82D1A35
:1001A00067EB01084F4622460120002100F020F8AD
:1001B00017EB00094E41201EA4F10104DFDC484684
:1001C00031462A464346BDE8F09F0000064C074DE5
:1001D00006E0E06840F0010394E807009847103417
:1001E000AC42F6D3FFF7A8FF88120008A812000857
:1001F000202A04DB203A00FA02F1002070479140E7
:10020000C2F1200320FA03F3194390407047202ADB
:1002100004DB203A21FA02F00021704721FA02F3B0
:10022000D040C2F12002914008431946704710B5F2
:10023000034607E018780C78A04201D0002010BDDA
:100240005B1C491C1000A2F10104A2B2F2D10120F2
:10025000F5E700BFFEE7704700E0401E0028FCD134
:1002600070472DE9F04102460025002600200023BA
:100270000024002791F803C00CF00F0591F803C08B
:100280000CF0100CBCF1000F03D091F802C04CEA46
:10029000050591F800C0BCF1000F31D014680020B2
:1002A0002BE04FF0010C0CFA00F3B1F800C00CEA9F
:1002B00003069E4220D183004FF00F0C0CFA03F787
:1002C000BC4305FA03FC4CEA040491F803C0BCF1FA
:1002D000280F06D14FF0010C0CFA00FCC2F814C034
:1002E0000AE091F803C0BCF1480F05D14FF0010CB2
:1002F0000CFA00FCC2F810C0401C0828D1D31460CE
:10030000B1F800C0BCF1FF0F34DD546800202EE0CE
:1003100000F1080C4FF0010808FA0CF3B1F800C026
:100320000CEA03069E4221D183004FF00F0C0CFA19
:1003300003F7BC4305FA03FC4CEA040491F803C03C
:10034000BCF1280F05D100F1080C08FA0CF8C2F82E
:10035000148091F803C0BCF1480F07D100F1080CDC
:100360004FF0010808FA0CF8C2F81080401C082869
:10037000CED35460BDE8F0814161704701617047A0
:1003800000BFFEE710B520210548FFF7F7FF012168
:100390000348FFF7F3FF02210148FFF7EDFF10BD0F
:1003A000000C014038B504460121082000F04EF849
:1003B000A0B2ADF8000010208DF8030003208DF8E6
:1003C000020069460148FFF74CFF38BD000C0140B0
:1003D00010B520210548FFF7D1FF01210348FFF7A1
:1003E000CBFF02210148FFF7C9FF10BD000C0140FF
:1003F00010B520210548FFF7BFFF01210348FFF793
:10040000BDFF02210148FFF7B9FF10BD000C0140FC
:1004100010B52020FFF7C6FF0120FFF7C3FF022021
:10042000FFF7C0FF20210648FFF7A8FF012104487D
:10043000FFF7A4FF02210248FFF7A0FF10BD000054
:10044000000C014000BFFEE77047704729B1064A23
:1004500092690243044B9A6104E0034A9269824321
:10046000014B9A61704700000010024030B5002136
:100470000022002400232D4D6D6805F00C0121B1F0
:10048000042905D0082923D105E0294D056022E083
:10049000274D05601FE0254D6D6805F47012234D52
:1004A0006D6805F48034022505EB92421CB9214D9C
:1004B000554305600BE01D4D6D6805F400351DB119
:1004C0001C4D5543056002E0194D5543056002E09F
:1004D000174D056000BF00BF144D6D6805F0F001B9
:1004E0000909154D6B5C0568DD4045600F4D6D6871
:1004F00005F4E061090A104D6B5C4568DD408560DC
:100500000A4D6D6805F46051C90A0B4D6B5C456876
:10051000DD40C560054D6D6805F44041890B074D10
:100520006B5CC568B5FBF3F5056130BD001002409A
:1005300000127A0000093D00000000201000002099
:1005400021B1028842F04002028004E002884FF6A6
:10055000BF731A400280704770B505460C461646B8
:1005600010211048FFF708FF032000F0C3F9C4F37F
:10057000074000F0BFF9C4F3072000F0BBF9E0B278
:1005800000F0B8F904E0FF2000F0B4F928706D1C09
:100590003000A6F101018EB2F5D110210148FFF71C
:1005A000EDFE70BD000801402DE9F05F07460E46E4
:1005B00014464FF00008C146C2460025AB4606F07F
:1005C000FF0ACAF10000C5B22046E11704EB116131
:1005D000C1F30728E11704EB11610912A4EB012113
:1005E00001F0FF09BAF1000F20D1B8F1000F05D1D9
:1005F00022463146384600F0C7F864E009E04FF47F
:1006000080723146384600F0BFF806F5807607F56F
:1006100080775FEA0800A8F1010101F0FF08EED140
:100620004A463146384600F0AFF84CE0B8F1000FCA
:1006300018D1A94510DDA9EB050000F0FF0B2A46F3
:100640003146384600F0A0F82E442F445A46314631
:10065000384600F099F836E022463146384600F038
:1006600093F830E0601B84B22046E11704EB11617F
:10067000C1F30728E11704EB11610912A4EB012172
:1006800001F0FF092A463146384600F07DF82E4435
:100690002F4409E04FF480723146384600F074F878
:1006A00006F5807607F580775FEA0800A8F101017A
:1006B00001F0FF08EED1B9F1000F04D04A463146EF
:1006C000384600F061F8BDE8F09F000000B587B043
:1006D00001210803FFF7BAFE0121C420FFF7B6FE8F
:1006E0001020ADF8040003208DF8060010208DF8CE
:1006F000070001A92248FFF7B4FD2020ADF804004F
:1007000018208DF8070001A91D48FFF7AAFD402019
:10071000ADF8040001A91A48FFF7A3FD8020ADF849
:10072000040001A91648FFF79CFD10211448FFF7AB
:1007300025FE0020ADF808004FF48270ADF80A00E5
:100740000020ADF80C000220ADF80E000120ADF83D
:1007500010004002ADF812000820ADF8140000208F
:10076000ADF816000720ADF8180002A9054800F002
:1007700035F901210348FFF7E3FE07B000BD000093
:10078000000801400030014070B505460C46164691
:1007900000F006F910211548FFF7EEFD022000F0E9
:1007A000A9F8C4F3074000F0A5F8C4F3072000F04F
:1007B000A1F8E0B200F09EF8B6F5807F04DD4FF4BA
:1007C00080760BA000F0BCFA03E0287800F092F8E5
:1007D0006D1C3000A6F101018EB2F6D11021034844
:1007E000FFF7CCFD00F0C2F870BD0000000801402A
:1007F0003C3C2D464C4153482D4552524F522D3EC4
:100800003E205350495F464C4153485F50616765F5
:10081000577269746520746F6F206C61726765210F
:100820000A00000010B5002410210C48FFF7A4FDB9
:10083000AB2000F05FF8FF2000F05CF8FF2000F034
:1008400059F8FF2000F056F8FF2000F053F8044656
:1008500010210248FFF792FD204610BD000801401C
:100860002DE9F041002400250026002710210F4823
:10087000FFF782FD9F2000F03DF8FF2000F03AF8DE
:100880000546FF2000F036F80646FF2000F032F85B
:10089000074610210548FFF771FD280440EA0620AD
:1008A00040EA07042046BDE8F0810000000801404E
:1008B00010B5044600F074F800F058F810210C4808
:1008C000FFF75AFD202000F015F8C4F3074000F0B0
:1008D00011F8C4F3072000F00DF8E0B200F00AF8B8
:1008E00010210348FFF74AFD00F040F810BD00005A
:1008F0000008014010B504464FF4805019490860C3
:100900000AE018490868411E164A116020B9002003
:1009100000F082F8C0B210BD0221134800F050F878
:100920000028EED02146104800F056F84FF48050D1
:100930000C4908600AE00B490868411E094A116029
:1009400020B9012000F068F8C0B2E4E701210648B0
:1009500000F036F80028EED0034800F03AF8C0B2B4
:10096000D9E70000400000200030014010B500240D
:1009700010210A48FFF700FD0520FFF7BBFF00BF6D
:10098000FF20FFF7B7FF044604F001000028F7D16D
:1009900010210248FFF7F2FC10BD000000080140E2
:1009A00010B510210548FFF7E7FC0620FFF7A2FF6E
:1009B00010210248FFF7E2FC10BD000000080140D2
:1009C0000246002013890B400BB1012000E00020FB
:1009D00070470146888970478181704710B50022B1
:1009E000028802F441520B884C8823438C882343AD
:1009F000CC8823430C8923434C8923438C8923438C
:100A0000CC8923431A430280838B4FF2FF74234027
:100A100083830B8A038210BD10B50446214602A0D1
:100A200000F08EF9002010BD3C3C2D464C4153484F
:100A30002D4552524F522D3E3E2053504920B5C8AD
:100A4000B4FDB3ACCAB1216572726F72436F646555
:100A5000203D2025640A0000704710B500F002F820
:100A600010BD00000CB500200190009033480068D4
:100A700040F480303149086000BF3048006800F41D
:100A8000003000900198401C0190009818B901981E
:100A9000B0F5A06FF1D12948006800F4003010B122
:100AA0000120009001E0002000900098012843D12F
:100AB0002348006840F0100021490860084600689B
:100AC00020F0030008600846006840F0020008605B
:100AD0001A48406819494860084640684860084616
:100AE000406840F4806048600846406820F47C100C
:100AF00048600846406840F4E810486008460068CE
:100B000040F08070086000BF0C48006800F0007082
:100B10000028F9D00948406820F0030007494860E0
:100B20000846406840F00200486000BF0348406843
:100B300000F00C000828F9D10CBD000000100240A4
:100B4000002002407047000010B51348006840F0D4
:100B500001001149086008464068104908400E49E4
:100B60004860084600680E4908400B49086008467E
:100B7000006820F4802008600846406820F4FE00E9
:100B800048604FF41F008860FFF767FF4FF0006078
:100B90000449086010BD0000001002400000FFF88A
:100BA000FFFFF6FE08ED00E021B1828942F4005219
:100BB000828104E082894DF6FF731A40828170477A
:100BC00000B585B001210420FFF740FC0121880316
:100BD000FFF73CFC4FF40070ADF8100018208DF8C2
:100BE000130003208DF8120004A91348FFF739FB06
:100BF0004FF48060ADF8100004208DF8130004A9B4
:100C00000D48FFF72EFB4FF4E13000900020ADF8C7
:100C10000400ADF80600ADF80800ADF80C000C209B
:100C2000ADF80A006946054800F018F801210348AC
:100C3000FFF7BAFF05B000BD0008014000380140D1
:100C400002460020B1F5007F00D100BF13880B40A1
:100C50000BB1012000E00020704700002DE9F047B3
:100C600086B005460E460024A24600BFA1460027D6
:100C7000B08900B100BF2F462C8A4CF6FF700440AB
:100C8000F08804432C82AC894EF6F3100440B088FF
:100C900031890843718908430443AC81AC8A4FF61B
:100CA000FF400440B0890443AC8201A8FFF7DEFB9B
:100CB0001F48874202D1DDF810A001E0DDF80CA04A
:100CC000A88900F4004040B10AEBCA0000EB0A100A
:100CD00031684900B0FBF1F807E00AEBCA0000EB0D
:100CE0000A1031688900B0FBF1F86420B8FBF0F01D
:100CF00004012009642101FB1089A88900F4004047
:100D000040B1322000EBC900B0FBF1F000F0070069
:100D1000044308E0322000EB09106421B0FBF1F03D
:100D200000F00F0004432C8106B0BDE8F0870000FE
:100D300000380140C1F308028280704700BFFEE71F
:100D40000FB4054B10B503A9044A029800F018F837
:100D500010BC5DF814FB00004110000844000020A6
:100D600002E008C8121F08C1002AFAD17047704774
:100D7000002001E001C1121F002AFBD170470000D2
:100D80002DE9FF4F8DB09B460F460446002606E036
:100D900025280BD05A460F999047641C761C207862
:100DA0000028F5D111B03046BDE8F08F0025A846E7
:100DB0000122984900E0054314F8013F203B02FA64
:100DC00003F00842F7D120782E2817D114F8010F2C
:100DD00045F004052A280ED06FF02F022078A0F1EC
:100DE000300109290AD808EB880102EB410100EB28
:100DF0000108641CF2E757F8048B641C20786C2807
:100E00000DD004DC4C2812D06A2811D104E07428DB
:100E10000DD07A280CD10AE045F4001507E061787E
:100E200045F48015814202D1641C05F58015641CCF
:100E30002278692A45D008DC002AB3D0582A69D024
:100E4000632A10D0642A08D13BE0702A67D0732A45
:100E500013D0752A5CD0782A5CD010465A460F9978
:100E60009047761CD3E017F8040B8DF800000020A3
:100E70008DF80100E946012003E057F8049B4FF08C
:100E8000FF3069074FF0000501D40AE06D1C4545AD
:100E90000DDA8542FADB19F805100029F6D106E0D3
:100EA0006D1C8542FCDB19F805100029F8D12E4491
:100EB00004E019F8010B5A460F9990476D1EF8D2BD
:100EC000A5E00A200021CDE90801C5F3025002285F
:100ED0000DD001CFC117031E71F100030DDA4FF0E1
:100EE000000CD0EB0C006CEB01012D2308E0FF1D82
:100EF00027F00707F7E80201EDE72B0504D52B23C0
:100F00008DF8283001233BE0EB0739D02023F7E7A9
:100F10000A2000E010200021CDE9080107E01020A0
:100F2000002145F00405CDE908014FF00808C5F39C
:100F3000025002280FD001CF00214FF0000A2B07EA
:100F40001FD5702A0DD0DDE908C38CF0100C5CEAC7
:100F5000030C0CD015E0FF1D27F00707F7E802018E
:100F6000EBE740228DF828204FF0010A0BE050EA11
:100F7000010306D030238DF828308DF82920022374
:100F80009A46582A04D024A20DF120090B9209E0B8
:100F900026A2F9E7DDE90823FFF7E6F80B9B9B5C47
:100FA00009F8013D50EA0102F4D1ADEB090020300F
:100FB0000890680701D44FF001080899884502DDC0
:100FC000A8EB010000E000208046002506E00AA80A
:100FD0005A46405D0F9990476D1C761C5545F6DBCF
:100FE00004E030205A460F999047761CB8F1000172
:100FF000A8F10108F5DC05E019F8010B5A460F9934
:101000009047761C0899481E08900029F4DC641C5F
:10101000C5E6000009280100303132333435363757
:101020003839616263646566000000003031323334
:1010300034353637383941424344454600000000D4
:1010400070B504460D46E1B20548FFF773FE00BFD8
:1010500080210348FFF7F4FD0028F9D0204670BD39
:101060000038014010B5FFF7ABFDFFF7D1F9FFF7EE
:1010700089F928A0FFF764FEFFF728FBFFF7D2FBF2
:1010800030490860C820FFF7E7F8FFF7E9FB2E4971
:1010900008602C480268084601682CA0FFF750FE43
:1010A00029480068374988422DD137A0FFF748FE0C
:1010B0000020FFF7FDFB1C2200213E48FFF774FAD9
:1010C0003C493DA0FFF73CFE1C2200214348FFF7AE
:1010D00043FA384942A0FFF733FE1C223F49354806
:1010E000FFF7A5F8474908700846007828B1FFF7D0
:1010F0006FF945A0FFF724FE0AE0FFF779F94FA04A
:10110000FFF71EFE04E0FFF773F957A0FFF718FE84
:10111000002010BD0D200A20D5E2CAC7D2BBB8F608
:1011200020384D4279746520B4AED0D020464C4171
:101130005348A3A8573235513634A3A9CAB5D1E9CB
:101140000D200A0034000020380000200D0A20463F
:101150006C617368494420697320307825582C20CD
:101160004D616E7566616374757265722044657653
:1011700069636520494420697320307825580D0A39
:10118000000000001740EF000D0A205365726961EE
:101190006C20466C617368205732355136342068B4
:1011A0006173206265656E2064657465637465644F
:1011B000210D0A00140000200D0A204461746120F2
:1011C00077726974656420696E20666C617368204B
:1011D0006973202573200D0A0000000048000020DC
:1011E0000D0A204461746120726561642066726F2B
:1011F0006D20666C617368206973202573200D0A69
:10120000000000003C0000200D0A20384D205365EE
:101210007269616C20666C617368202857323551A1
:101220003634292074657374207375636365737332
:1012300066756C6C7921200D0A0000000D0A2038BB
:101240004D2053657269616C20666C61736820285B
:1012500057323551363429207465737420666169BC
:101260006C656421200D0A000D0A20573235513675
:10127000342049442063616E6E6F7420626520667D
:101280006F756E64210D0A00A8120008000000208E
:1012900048000000600D0008F0120008480000201F
:1012A00020040000700D000800000000010203048B
:1012B000010203040607080902040608D5E2CAC7AA
:1012C000D2BBB8F653504920464C415348B2E2CA0B
:1012D000D4CAB5D1E9200D0A0000000000000000CA
:1012E000000000000000000000A00000000000005E
:0400000508000131BD
:00000001FF
