:020000040800F2
:10000000180400204501000805030008B10200089B
:10001000010300088D0100086507000800000000CA
:10002000000000000000000000000000A50400081F
:1000300091010008000000008D03000891050008F0
:10004000D50700085F0100085F0100085F01000894
:100050005F0100085F0100085F0100085F01000800
:100060005F0100085F0100085F0100085F010008F0
:100070005F0100085F0100085F0100085F010008E0
:100080005F0100085F0100085F0100085F010008D0
:100090005F0100085F0100085F0100085F010008C0
:1000A0005F0100085F0100085F0100085F010008B0
:1000B0005F0100085F0100085F0100085F010008A0
:1000C0005F0100085F0100085F0100085F01000890
:1000D0005F0100085F0100085F0100085F01000880
:1000E0005F0100085F0100085F0100085F01000870
:1000F0005F0100085F0100085F0100085F01000860
:100100005F0100085F0100085F0100085F0100084F
:100110005F0100085F0100085F0100085F0100083F
:100120005F0100085F0100085F0100085F0100082F
:10013000DFF80CD000F018F80048004789080008E4
:10014000180400200648804706480047FEE7FEE7FF
:10015000FEE7FEE7FEE7FEE7FEE7FEE7FEE7FEE777
:100160009505000831010008064C074D06E0E068DF
:1001700040F0010394E8070098471034AC42F6D3EE
:10018000FFF7DAFFDC080008FC08000800BFFEE704
:1001900070472DE9F041024600250026002000238B
:1001A0000024002791F803C00CF00F0591F803C05C
:1001B0000CF0100CBCF1000F03D091F802C04CEA17
:1001C000050591F800C0BCF1000F31D01468002083
:1001D0002BE04FF0010C0CFA00F3B1F800C00CEA70
:1001E00003069E4220D183004FF00F0C0CFA03F758
:1001F000BC4305FA03FC4CEA040491F803C0BCF1CB
:10020000280F06D14FF0010C0CFA00FCC2F814C004
:100210000AE091F803C0BCF1480F05D14FF0010C82
:100220000CFA00FCC2F810C0401C0828D1D314609E
:10023000B1F800C0BCF1FF0F34DD546800202EE09F
:1002400000F1080C4FF0010808FA0CF3B1F800C0F7
:100250000CEA03069E4221D183004FF00F0C0CFAEA
:1002600003F7BC4305FA03FC4CEA040491F803C00D
:10027000BCF1280F05D100F1080C08FA0CF8C2F8FF
:10028000148091F803C0BCF1480F07D100F1080CAD
:100290004FF0010808FA0CF8C2F81080401C08283A
:1002A000CED35460BDE8F081416170470161704771
:1002B00000BFFEE710B5012000F008F8202000F094
:1002C00005F8022000F002F810BD000038B5044621
:1002D0000121082000F06CF8A0B2ADF80000102059
:1002E0008DF8030003208DF8020069460348FFF7EC
:1002F00050FFA1B20148FFF7D9FF38BD000C014003
:1003000000BFFEE77047000070B5002100230F22F8
:10031000C47804B3154C246804F4E064C4F5E064C4
:10032000210AC1F10403CA40447804FA03F1847835
:100330001440214309010E4C0678A155047804F0BD
:100340001F050124AC4005786D11AD0005F1E025D5
:10035000C5F8004109E0047804F01F050124AC4011
:10036000044D0678761145F8264070BD0CED00E08E
:1003700000E400E080E100E002490143024A11602C
:10038000704700000000FA050CED00E07047000027
:1003900029B1064AD2690243044BDA6104E0034AF8
:1003A000D2698243014BDA617047000000100240BD
:1003B00029B1064A92690243044B9A6104E0034A58
:1003C00092698243014B9A6170470000001002401D
:1003D00030B500210022002400232D4D6D6805F06A
:1003E0000C0121B1042905D0082923D105E0294DAC
:1003F000056022E0274D05601FE0254D6D6805F47E
:100400007012234D6D6805F48034022505EB92428D
:100410001CB9214D554305600BE01D4D6D6805F479
:1004200000351DB11C4D5543056002E0194D554383
:10043000056002E0174D056000BF00BF144D6D68F8
:1004400005F0F0010909154D6B5C0568DD4045605C
:100450000F4D6D6805F4E061090A104D6B5C45684D
:10046000DD4085600A4D6D6805F46051C90A0B4D89
:100470006B5C4568DD40C560054D6D6805F4404125
:10048000890B074D6B5CC568B5FBF3F5056130BDA5
:100490000010024000127A0000093D000000002018
:1004A00010000020704710B500F002F810BD0000E9
:1004B0000CB50020019000903348006840F4803073
:1004C0003149086000BF3048006800F400300090F7
:1004D0000198401C0190009818B90198B0F5A06FE0
:1004E000F1D12948006800F4003010B101200090DB
:1004F00001E0002000900098012843D123480068C3
:1005000040F01000214908600846006820F0030010
:1005100008600846006840F0020008601A48406819
:10052000194948600846406848600846406840F4F9
:10053000806048600846406820F47C1048600846A7
:10054000406840F4E81048600846006840F0807059
:10055000086000BF0C48006800F000700028F9D067
:100560000948406820F00300074948600846406891
:1005700040F00200486000BF0348406800F00C00F3
:100580000828F9D10CBD00000010024000200240F4
:100590007047000010B51348006840F00100114991
:1005A000086008464068104908400E4948600846FF
:1005B00000680E4908400B4908600846006820F4AE
:1005C000802008600846406820F4FE0048604FF430
:1005D0001F008860FFF767FF4FF000600449086064
:1005E00010BD0000001002400000FFF8FFFFF6FE03
:1005F00008ED00E021B1828942F40052828104E0DA
:1006000082894DF6FF731A408281704700B585B02C
:1006100001210420FFF7CCFE01218803FFF7C8FE6B
:100620004FF40070ADF8100018208DF8130003206F
:100630008DF8120004A91348FFF7ABFD4FF480605A
:10064000ADF8100004208DF8130004A90D48FFF741
:10065000A0FD4FF4E13000900020ADF80400ADF8AB
:100660000600ADF80800ADF80C000C20ADF80A004B
:100670006946054800F00AF801210348FFF7BAFF70
:1006800005B000BD00080140003801402DE9F047E9
:1006900086B005460E460024A24600BFA1460027AC
:1006A000B08900B100BF2F462C8A4CF6FF70044081
:1006B000F08804432C82AC894EF6F3100440B088D5
:1006C00031890843718908430443AC81AC8A4FF6F1
:1006D000FF400440B0890443AC8201A8FFF778FED4
:1006E0001F48874202D1DDF810A001E0DDF80CA020
:1006F000A88900F4004040B10AEBCA0000EB0A10E0
:1007000031684900B0FBF1F807E00AEBCA0000EBE2
:100710000A1031688900B0FBF1F86420B8FBF0F0F2
:1007200004012009642101FB1089A88900F400401C
:1007300040B1322000EBC900B0FBF1F000F007003F
:10074000044308E0322000EB09106421B0FBF1F013
:1007500000F00F0004432C8106B0BDE8F0870000D4
:100760000038014000BFFEE770B506460C4615464E
:100770000121C802FFF70CFE284600F051F8204680
:1007800000F05AF8304600F043F87F2000F00EF8F1
:1007900000F006F800F028F800F010F870BD000036
:1007A0000020014908607047082C004040F080019B
:1007B000014A116070470000002C004001200149EF
:1007C00008607047A480054210B57F2000F020F833
:1007D00010BD000010B5FFF7E3FF20210148FFF72F
:1007E00063FD10BD000C014008B54FF4C060FFF779
:1007F000C3FD00208DF800008DF801008DF8020087
:1008000001208DF803006846FFF77EFD08BD00005B
:1008100000F07F01014A116070470000002C004089
:100820000021044A126822F4C0710143014A116098
:1008300070470000042C004008B5002100910749D2
:10084000096821F07F01009100F07F01009A1143B7
:100850000091024A0099116008BD0000042C00407C
:1008600002E008C8121F08C1002AFAD17047704779
:10087000002001E001C1121F002AFBD1704700E0F7
:10088000401E0028FCD17047FFF7C0FEFFF712FDA5
:1008900002210F48FFF708FD0E48FFF7F0FF4FF465
:1008A000C0725F217F20FFF75FFF0B48006800F0F8
:1008B0007F050CE002210648FFF7F8FC0648001F00
:1008C000006800F07F04AC4201DAFFF77DFFF1E73A
:1008D000000C0140FFFF0F00042C0040FC08000842
:1008E0000000002014000000600800081009000843
:1008F000140000200404000070080008000000003C
:1009000001020304010203040607080902040608A1
:0400000508000131BD
:00000001FF
