:020000040800F2
:100000002006002045010008950C00085303000855
:10001000910C00082F020008911000080000000059
:10002000000000000000000000000000AD0D00080E
:100030003302000800000000970C0008990E000829
:100040005F0100085F0100085F0100085F01000810
:100050005F0100085F0100085F0100085F01000800
:100060005F0100085F0100085F0100085F010008F0
:100070005F0100085F0100085F0100085F010008E0
:100080005F0100085F0100085F0100085F010008D0
:100090005F0100085F0100085F0100085F010008C0
:1000A0005F0100085F0100085F0100085F010008B0
:1000B0005F0100085F0100085F0100085F010008A0
:1000C0005F0100085F0100085F0100085F01000890
:1000D0005F0100085F0100085F0100085F01000880
:1000E0005F0100085F0100085F0100085F01000870
:1000F0005F0100085F0100085F0100085F01000860
:100100005F0100085F0100085F0100085F0100084F
:100110005F0100085F0100085F0100085F0100083F
:100120005F0100085F0100085F0100085F0100082F
:10013000DFF80CD000F04AF8004800475D150008D1
:10014000200600200648804706480047FEE7FEE7F5
:10015000FEE7FEE7FEE7FEE7FEE7FEE7FEE7FEE777
:100160009D0E0008310100082DE9F05F05460020D2
:1001700092469B4688460646814640241BE0284618
:1001800041464746224600F042F853465A46C01AB6
:10019000914110D311461846224600F029F82D1A35
:1001A00067EB01084F4622460120002100F020F8AD
:1001B00017EB00094E41201EA4F10104DFDC484684
:1001C00031462A464346BDE8F09F0000064C074DE5
:1001D00006E0E06840F0010394E807009847103417
:1001E000AC42F6D3FFF7A8FFA4150008C415000819
:1001F000202A04DB203A00FA02F1002070479140E7
:10020000C2F1200320FA03F3194390407047202ADB
:1002100004DB203A21FA02F00021704721FA02F3B0
:10022000D040C2F12002914008431946704700BFF8
:10023000FEE770472DE9F041024600250026002028
:1002400000230024002791F803C00CF00F0591F85B
:1002500003C00CF0100CBCF1000F03D091F802C0E9
:100260004CEA050591F800C0BCF1000F31D01468CC
:1002700000202BE04FF0010C0CFA00F3B1F800C0A5
:100280000CEA03069E4220D183004FF00F0C0CFABB
:1002900003F7BC4305FA03FC4CEA040491F803C0DD
:1002A000BCF1280F06D14FF0010C0CFA00FCC2F88B
:1002B00014C00AE091F803C0BCF1480F05D14FF01B
:1002C000010C0CFA00FCC2F810C0401C0828D1D365
:1002D0001460B1F800C0BCF1FF0F34DD5468002099
:1002E0002EE000F1080C4FF0010808FA0CF3B1F809
:1002F00000C00CEA03069E4221D183004FF00F0C90
:100300000CFA03F7BC4305FA03FC4CEA040491F829
:1003100003C0BCF1280F05D100F1080C08FA0CF855
:10032000C2F8148091F803C0BCF1480F07D100F166
:10033000080C4FF0010808FA0CF8C2F81080401CB5
:100340000828CED35460BDE8F08141617047016157
:10035000704700BFFEE721B1028842F4806202804C
:1003600004E002884FF6FF331A400280704770B5F0
:1003700002460024002500230020958A138B1B04CD
:1003800045EA030626F07F4404EA01068E4201D1C5
:10039000012000E0002070BD002221F07F42D34305
:1003A0008382704721B1028842F00102028004E09A
:1003B00002884FF6FE731A400280704770B50546FA
:1003C0000E4614464FF420406549086009E0644930
:1003D0000868411E624A116018B9092000F03EFB0E
:1003E00070BD4FF400315F4800F068FA0028EED18C
:1003F00001215C4800F04AFA4FF4805058490860E7
:1004000009E057490868411E554A116018B90A2089
:1004100000F024FBE4E754495248FFF7A8FF002806
:10042000EFD05248017800224E4800F00CFB4FF408
:1004300080504B49086009E049490868411E484A14
:10044000116018B90B2000F009FBC9E7484945487D
:10045000FFF78DFF0028EFD001214248FFF7A2FFF0
:100460003146404800F0F8FA4FF480503C490860AB
:1004700009E03B490868411E394A116018B90C204F
:1004800000F0ECFAACE73A49891C3648FFF76FFFF9
:100490000028EED00121334800F0F8F94FF48050E5
:1004A0002F49086009E02E490868411E2C4A116056
:1004B00018B90D2000F0D2FA92E72B492948FFF72E
:1004C00056FF0028EFD0294801780122254800F086
:1004D000BAFA4FF480502249086009E020490868C0
:1004E000411E1F4A116018B90E2000F0B7FA77E7D5
:1004F0001D49491C1B48FFF73AFF0028EED026E0B3
:10050000012C07D100211748FFF725FF01211548CD
:1005100000F0C8F94FF420401149086009E0104983
:100520000868411E0E4A116018B9032000F096FABF
:1005300056E70D493F310B48FFF719FF0028EED071
:10054000084800F07CFA28706D1C601E84B2002CF4
:10055000D6D101210348FFF7FEFE012040E700004D
:100560001800002000540040010003001400002087
:10057000820007002DE9F04707460D4614464FF06C
:100580000008C146C24600262846E91705EB51710E
:10059000C910A5EBC10101F0FF0ACAF10800C6B2FB
:1005A0002046E11704EB5171C1F3C708E11704EBD2
:1005B0005171C910A4EBC10101F0FF09BAF1000F9C
:1005C00028D1B8F1000F07D14A462946384600F035
:1005D00073F800F00BF960E00AE00822294638467B
:1005E00000F06AF800F002F905F10800C5B208371A
:1005F0005FEA0800A8F1010101F0FF08EDD1B9F1AF
:10060000000F4AD04A462946384600F055F800F017
:10061000EDF842E0B8F1000F07D14A4629463846C6
:1006200000F04AF800F0E2F837E0A01B84B2204660
:10063000E11704EB5171C1F3C708E11704EB5171E5
:10064000C910A4EBC10101F0FF094EB132462946A1
:10065000384600F031F800F0C9F8A819C5B237449F
:100660000AE008222946384600F026F800F0BEF8D5
:1006700005F10800C5B208375FEA0800A8F10101DA
:1006800001F0FF08EDD1B9F1000F06D04A46294626
:10069000384600F011F800F0A9F8BDE8F087000036
:1006A00010B500F0CDF800F09DF9A02001490880B8
:1006B00010BD00001400002070B504460E4615461B
:1006C0004FF420404449086009E043490868411E4E
:1006D000414A116018B9042000F0C0F970BD4FF410
:1006E00000313E4800F0EAF80028EED101213B48F5
:1006F00000F0CCF84FF480503749086009E03649E3
:100700000868411E344A116018B9052000F0A6F9A6
:10071000E4E733493148FFF72AFE0028EFD031489B
:10072000017800222D4800F08EF94FF480502A49BC
:10073000086009E028490868411E274A116018B975
:10074000062000F08BF9C9E727492448FFF70FFE80
:100750000028EFD03146214800F07EF94FF4805058
:100760001D49086009E01C490868411E1A4A1160C9
:1007700018B9072000F072F9B0E71B49891C174827
:10078000FFF7F5FD0028EED01AE02178134800F0BD
:1007900063F9641C4FF480500F49086009E00E496A
:1007A0000868411E0C4A116018B9082000F056F97B
:1007B00094E70D49891C0948FFF7D9FD0028EED0C0
:1007C0002800A5F10101CDB2DFD10121034800F0DD
:1007D00069F8012082E70000180000200054004062
:1007E00001000300140000208200070008B500206B
:1007F000009000BF01210F4800F048F814210D4877
:1008000000F012F900900C4801780022094800F02D
:100810001AF91421074800F007F900F00200002837
:10082000E8D006490348FFF7B7FD0121014800F071
:1008300039F808BD005400401400002000040010E6
:1008400008B50121480500F027FA0121082000F031
:1008500033FA4020ADF8000003208DF802001C2080
:100860008DF8030069460848FFF7E4FC8020ADF8E6
:10087000000003208DF802001C208DF8030069465B
:100880000148FFF7D7FC08BD000C014021B10288E8
:1008900042F48072028004E002884FF6FF631A403F
:1008A0000280704721B1028842F40072028004E0A5
:1008B00002884FF6FF531A40028070470CB502467B
:1008C000002000230193009300920B0F019321F06D
:1008D0007F41019B1BB1009B1433009303E0090C83
:1008E000009B18330093009B1B680B400BB1012049
:1008F00000E000200CBD00002DE9F04385B0044667
:100900000D460026B1460427DFF8CC80A6884FF6B6
:10091000C0700640684600F0DFF9DDF808802F4817
:10092000B8FBF0F01FFA80F946EA0906A680208895
:100930004FF6FE7108402080002629492868884229
:100940000CD828684000B8FBF0F087B2042F00DA1A
:1009500004273E4309F10100208427E0E8884BF694
:10096000FF71884206D1286800EB4000B8FBF0F028
:1009700087B209E0286800EBC00101EB0010B8FB6A
:10098000F0F087B247F48047C7F30B0008B947F08F
:10099000010747F4004006434FF4967009FB00F04E
:1009A0004FF47A7190FBF1F0401C2084A6832088DC
:1009B00040F00100208026884FF6F5300640A888D8
:1009C0006989084306432680A8892989084320812C
:1009D00005B0BDE8F083000000127A0040420F002D
:1009E000A08601001FB50020ADF804004BF6FF7093
:1009F000ADF806000A20ADF808004FF48060ADF8AD
:100A00000A000001ADF80C00054800906946054851
:100A1000FFF772FF01210348FFF7C4FC1FBD000070
:100A2000801A06000054004008B5024600200090DD
:100A300000920098084400900098008808BD014684
:100A4000088AC0B2704712B141F0010102E04FF6CE
:100A5000FE731940018270470182704710B5044649
:100A6000214602A000F016FB002010BD3C3C2D45A5
:100A70004550524F4D2D4552524F522D3E3E20492A
:100A8000324320B5C8B4FDB3ACCAB1216572726FF0
:100A900072436F6465203D2025640A0010B52CA0C8
:100AA00000F0F8FA002413E032490C550846015DC5
:100AB00031A000F0EFFAE11704EB11710911A4EB7A
:100AC00001110F2902D12EA000F0E4FA601C84B2BB
:100AD000FF2CE9DD4FF4807200212648FFF74AFD24
:100AE00028A000F0D7FA2FA000F0D4FA4FF48072BB
:100AF00000213548FFF762FC002421E03248005D08
:100B00001C49095D884209D02F48015D2FA000F0E3
:100B1000C1FA35A000F0BEFA002010BD2A48015DE0
:100B200040A000F0B7FAE11704EB11710911A4EB32
:100B300001110F2902D112A000F0ACFA601C84B29E
:100B4000FF2CDBDD39A000F0A5FA0120E5E700006D
:100B50003C3C2D454550524F4D2D494E464F2D3E64
:100B60003E200A0DD0B4C8EBB5C4CAFDBEDD0A0DE7
:100B70000A000000200000203078253032580000A4
:100B80000A0D00003C3C2D454550524F4D2D494E1D
:100B9000464F2D3E3E200A0DD0B4B3C9B9A60A0D6A
:100BA0000A0000003C3C2D454550524F4D2D494E0A
:100BB000464F2D3E3E200A0DB6C1B3F6B5C4CAFD60
:100BC000BEDD0A0D0A000000200100203C3C2D453E
:100BD0004550524F4D2D4552524F522D3E3E2030E2
:100BE0007825303258200A003C3C2D454550524F64
:100BF0004D2D4552524F522D3E3E20B4EDCEF33A8C
:100C000049324320454550524F4DD0B4C8EBD3EB49
:100C1000B6C1B3F6B5C4CAFDBEDDB2BBD2BBD6C247
:100C20000A0D0A0030782530325820003C3C2D4512
:100C30004550524F4D2D494E464F2D3E3E20493294
:100C400043284154323443303229B6C1D0B4B2E2E1
:100C5000CAD4B3C9B9A60A0D0A00000038B50446C3
:100C60000121082000F028F8A0B2ADF80000102003
:100C70008DF8030003208DF8020069460348FFF752
:100C8000D9FA01210148FFF762FB38BD000C014091
:100C900000BFFEE77047704729B1064AD269024398
:100CA000044BDA6104E0034AD2698243014BDA6102
:100CB000704700000010024029B1064A92690243C1
:100CC000044B9A6104E0034A92698243014B9A61A2
:100CD000704700000010024030B5002100220024BF
:100CE00000232D4D6D6805F00C0121B1042905D0BC
:100CF000082923D105E0294D056022E0274D056034
:100D00001FE0254D6D6805F47012234D6D6805F4E4
:100D10008034022505EB92421CB9214D55430560F4
:100D20000BE01D4D6D6805F400351DB11C4D55439C
:100D3000056002E0194D5543056002E0174D05605E
:100D400000BF00BF144D6D6805F0F0010909154D95
:100D50006B5C0568DD4045600F4D6D6805F4E06132
:100D6000090A104D6B5C4568DD4085600A4D6D6871
:100D700005F46051C90A0B4D6B5C4568DD40C560E8
:100D8000054D6D6805F44041890B074D6B5CC568E6
:100D9000B5FBF3F5056130BD0010024000127A008A
:100DA00000093D000000002010000020704710B531
:100DB00000F002F810BD00000CB50020019000907A
:100DC0003348006840F480303149086000BF304843
:100DD000006800F4003000900198401C01900098D9
:100DE00018B90198B0F5A06FF1D12948006800F456
:100DF000003010B10120009001E000200090009828
:100E0000012843D12348006840F0100021490860C0
:100E10000846006820F0030008600846006840F0BB
:100E2000020008601A48406819494860084640684E
:100E300048600846406840F4806048600846406862
:100E400020F47C1048600846406840F4E810486090
:100E50000846006840F08070086000BF0C480068D9
:100E600000F000700028F9D00948406820F0030025
:100E7000074948600846406840F00200486000BFEB
:100E80000348406800F00C000828F9D10CBD0000B0
:100E900000100240002002407047000010B51348C7
:100EA000006840F001001149086008464068104998
:100EB00008400E494860084600680E4908400B4942
:100EC00008600846006820F48020086008464068F2
:100ED00020F4FE0048604FF41F008860FFF767FFB2
:100EE0004FF000600449086010BD0000001002408F
:100EF0000000FFF8FFFFF6FE08ED00E021B1828957
:100F000042F40052828104E082894DF6FF731A4058
:100F10008281704700B585B001210420FFF7CCFE27
:100F200001218803FFF7C8FE4FF40070ADF81000F0
:100F300018208DF8130003208DF8120004A913481F
:100F4000FFF778F94FF48060ADF8100004208DF8B9
:100F5000130004A90D48FFF76DF94FF4E13000903C
:100F60000020ADF80400ADF80600ADF80800ADF8BB
:100F70000C000C20ADF80A006946054800F018F88E
:100F800001210348FFF7BAFF05B000BD000801408A
:100F90000038014002460020B1F5007F00D100BFBB
:100FA00013880B400BB1012000E0002070470000C7
:100FB0002DE9F04786B005460E460024A24600BF44
:100FC000A1460027B08900B100BF2F462C8A4CF6FD
:100FD000FF700440F08804432C82AC894EF6F31075
:100FE0000440B08831890843718908430443AC81C7
:100FF000AC8A4FF6FF400440B0890443AC8201A89C
:10100000FFF76AFE1F48874202D1DDF810A001E019
:10101000DDF80CA0A88900F4004040B10AEBCA003A
:1010200000EB0A1031684900B0FBF1F807E00AEB69
:10103000CA0000EB0A1031688900B0FBF1F86420A7
:10104000B8FBF0F004012009642101FB1089A88994
:1010500000F4004040B1322000EBC900B0FBF1F0D9
:1010600000F00700044308E0322000EB091064217F
:10107000B0FBF1F000F00F0004432C8106B0BDE896
:10108000F087000000380140C1F3080282807047F9
:1010900000BFFEE70FB4054B10B503A9044A029840
:1010A00000F018F810BC5DF814FB000039150008BA
:1010B0001C00002002E008C8121F08C1002AFAD153
:1010C00070477047002001E001C1121F002AFBD1C8
:1010D000704700002DE9FF4F8DB00F4605460026F2
:1010E00006E025280BD0DDE90F1290476D1C761C19
:1010F00028780028F5D111B03046BDE8F08F0024E3
:10110000A246A1460122EC4900E0044315F8013F44
:10111000203B02FA03F00842F7D128782A2810D0A1
:101120006FF02F022878A0F13001092914D80AEBBA
:101130008A0102EB410144F0020400EB010A6D1C3C
:10114000F0E701CF5FEA000A03D544F40054CAF186
:10115000000A44F002046D1C28782E2817D115F8D7
:10116000010F44F004042A280ED06FF02F022878D3
:10117000A0F1300109290AD809EB890102EB4101EC
:1011800000EB01096D1CF2E757F8049B6D1C2878F1
:101190006C280FD006DC4C2817D068280DD06A28A0
:1011A00014D104E0742810D07A280FD10DE044F453
:1011B00000140AE044F4801401E044F44014697817
:1011C000814202D104F580146D1C6D1C2A786E2AB0
:1011D0001FD00CDC632A31D004DC002A8BD0582AC3
:1011E00011D1A3E0642A68D0692A0CD165E0732A82
:1011F0002ED004DC6F2A73D0702A04D19BE0752AAC
:101200006FD0782A6ED01046DDE90F129047761C19
:1012100050E1C4F30250022806D0032809D0042864
:1012200001CF09D0066045E101CFF117C0E90061A7
:1012300040E101CF06803DE106703BE117F8040B69
:101240008DF8000000208DF80100EB46012003E03E
:1012500057F804BB4FF0FF3061074FF0000102D494
:101260000DE008F10101884649450FDA8045F8DBB9
:101270001BF808100029F4D108E008F101018846A4
:101280008142FADB1BF808100029F6D1DDE90F23B3
:10129000AAEB08008146214600F036F9304400EB05
:1012A000080604E0DDE90F121BF8010B9047B8F1C6
:1012B0000108F7D221464846F7E00A21C4F3025359
:1012C0004FF0000B0891022B04D001CFC117032B64
:1012D00009D00AE0FF1D27F00707F7E8020108E040
:1012E00032E01FE020E000B2C117042B01D140B270
:1012F000C117031E71F1000307DA4FF0000CD0EBA9
:101300000C006CEB01012D2302E0230504D52B23F7
:101310008DF82430012303E0E30701D02023F7E711
:10132000984658E00A2110E010210EE010204FF0FE
:10133000000B08900CE010214FF0000B44F0040467
:101340004FF00809089103E008214FF0000B0891C5
:10135000C4F30253022B04D001CF0021032B06D08B
:1013600006E0FF1D27F00707F7E8020103E080B25F
:10137000042B00D1C0B24FF0000823072BD5702AF0
:1013800007D0DDF820C08CF0100C5CEA0B0C05D007
:101390000EE040238DF82430012308E050EA0103D9
:1013A00006D030238DF824308DF82520022398466E
:1013B000DDF820C08CF0080C5CEA0B0C0BD150EA75
:1013C000010301D1630706D530238DF824304FF097
:1013D0000108A9F10109582A04D038A20B9208AAE1
:1013E0000A920BE03AA2F9E75B46089AFEF7BCFEC8
:1013F0000B9B9B5C0A9A521E0A92137050EA0102E0
:10140000F2D10A98ADEB000000F1200B600702D585
:1014100024F4803401E04FF00109D94502DDA9EB45
:101420000B0000E0002000EB0B0141440890AAEB08
:10143000010AE00306D4DDE90F232146504600F0FF
:1014400063F806444FF0000908E009A911F8090003
:10145000DDE90F12904709F10109761CC145F4DB63
:10146000E0030CD5DDE90F232146504600F04CF88F
:10147000064404E0DDE90F1230209047761C0899FD
:10148000481E08900029F5DC08E00A980A990078BF
:10149000491C0A91DDE90F129047761CBBF100014F
:1014A000ABF1010BF1DC21465046DDE90F2300F0E2
:1014B00019F806446D1C1BE609280100303132334F
:1014C0003435363738396162636465660000000080
:1014D000303132333435363738394142434445466A
:1014E000000000002DE9F041044600251E46174685
:1014F000880404D405E039462020B0476D1C641EE2
:10150000F9D52846BDE8F0812DE9F04104460025D3
:101510001E469046C80301D5302700E020278804E6
:1015200004D505E041463846B0476D1C641EF9D528
:101530002846BDE8F081000070B504460D46E1B2D2
:101540000548FFF7A1FD00BF80210348FFF722FDFA
:101550000028F9D0204670BD00380140FFF7DAFCC2
:101560000120FFF77BFB2020FFF778FBFFF798F8BF
:10157000FFF794FA012808D101210948FEF7E5FE9A
:1015800020210748FEF7E3FE07E020210448FEF78C
:10159000DCFE01210248FEF7DAFE00BFFEE7000094
:1015A000000C0140C41500080000002020000000CD
:1015B000B4100008E4150008200000200006000018
:1015C000C41000080000000001020304010203042B
:1015D00006070809020406080000000000A0000039
:0415E0000000000007
:0400000508000131BD
:00000001FF
