:020000040800F2
:10000000382D00204501000865030008FD020008A6
:1000100061030008D90100083D0C00080000000041
:100020000000000000000000000000005909000866
:10003000DD0100080000000067030008450A000811
:100040005F0100085F0100085F0100085F01000810
:100050005F0100085F0100085F0100085F01000800
:100060005F0100085F0100085F0100085F010008F0
:100070005F0100085F0100085F0100085F010008E0
:100080005F0100085F0100085F0100085F010008D0
:100090005F0100085F0100085F0100085F010008C0
:1000A0005F0100085F0100085F0100085F010008B0
:1000B0005F0100085F0100085F0100085F010008A0
:1000C0005F0100085F0100085F0100085F01000890
:1000D0005F0100085F0100085F0100085F01000880
:1000E0005F0100085F0100085F0100085F01000870
:1000F0005F0100085F0100085F0100085F01000860
:100100005F0100085F0100085F0100085F0100084F
:100110005F0100085F0100085F0100085F0100083F
:100120005F0100085F0100085F0100085F0100082F
:10013000DFF80CD000F03EF800480047513D0008C1
:10014000382D00200648804706480047FEE7FEE7B6
:10015000FEE7FEE7FEE7FEE7FEE7FEE7FEE7FEE777
:10016000490A000831010008421C10F8011B00294F
:10017000FBD1801A7047034611F8012B00F8012BC0
:10018000002AF9D11846704730B50B4601460020C9
:100190002022012409E021FA02F59D4205D303FA49
:1001A00002F5491B04FA02F52844151EA2F10102CA
:1001B000F1DC30BD064C074D06E0E06840F001037D
:1001C00094E8070098471034AC42F6D3FFF7B4FF29
:1001D00004FC020824FC020800BFFEE770472DE97A
:1001E000F0410246002500260020002300240027BD
:1001F00091F803C00CF00F0591F803C00CF0100C3F
:10020000BCF1000F03D091F802C04CEA050591F84B
:1002100000C0BCF1000F31D0146800202BE04FF07B
:10022000010C0CFA00F3B1F800C00CEA03069E4280
:1002300020D183004FF00F0C0CFA03F7BC4305FAF2
:1002400003FC4CEA040491F803C0BCF1280F06D16A
:100250004FF0010C0CFA00FCC2F814C00AE091F84F
:1002600003C0BCF1480F05D14FF0010C0CFA00FCA3
:10027000C2F810C0401C0828D1D31460B1F800C0E7
:10028000BCF1FF0F34DD546800202EE000F1080CB3
:100290004FF0010808FA0CF3B1F800C00CEA0306AD
:1002A0009E4221D183004FF00F0C0CFA03F7BC43A0
:1002B00005FA03FC4CEA040491F803C0BCF1280FD2
:1002C00005D100F1080C08FA0CF8C2F8148091F876
:1002D00003C0BCF1480F07D100F1080C4FF0010832
:1002E00008FA0CF8C2F81080401C0828CED35460DD
:1002F000BDE8F081416170470161704700BFFEE7D2
:1003000038B504460121082000F02EF8A0B2ADF85F
:10031000000010208DF8030003208DF802006946CC
:100320000148FFF75CFF38BD000C014010B52020EC
:10033000FFF7E6FF0120FFF7E3FF0220FFF7E0FFF2
:1003400020210648FFF7D8FF01210448FFF7D4FF1A
:1003500002210248FFF7D0FF10BD0000000C014051
:1003600000BFFEE77047704729B1064A9269024311
:10037000044B9A6104E0034A92698243014B9A61FB
:10038000704700000010024030B500210022002418
:1003900000232D4D6D6805F00C0121B1042905D015
:1003A000082923D105E0294D056022E0274D05608D
:1003B0001FE0254D6D6805F47012234D6D6805F43E
:1003C0008034022505EB92421CB9214D554305604E
:1003D0000BE01D4D6D6805F400351DB11C4D5543F6
:1003E000056002E0194D5543056002E0174D0560B8
:1003F00000BF00BF144D6D6805F0F0010909154DEF
:100400006B5C0568DD4045600F4D6D6805F4E0618B
:10041000090A104D6B5C4568DD4085600A4D6D68CA
:1004200005F46051C90A0B4D6B5C4568DD40C56041
:10043000054D6D6805F44041890B074D6B5CC5683F
:10044000B5FBF3F5056130BD0010024000127A00E3
:1004500000093D00000000201000002021B10288AA
:1004600042F04002028004E002884FF6BF731A4057
:100470000280704770B505460C461646102110489C
:10048000FFF738FF032000F0A5F9C4F3074000F0A0
:10049000A1F9C4F3072000F09DF9E0B200F09AF949
:1004A00004E0FF2000F096F928706D1C3000A6F1E2
:1004B00001018EB2F5D110210148FFF71DFF70BD7B
:1004C000000801402DE9F05F07460E4614464FF044
:1004D0000008C146C2460025AB4606F0FF0ACAF135
:1004E0000000C5B22046E11704EB1161C1F30728F3
:1004F000E11704EB11610912A4EB012101F0FF09DE
:10050000BAF1000F20D1B8F1000F05D122463146D3
:10051000384600F0C7F864E009E04FF480723146D5
:10052000384600F0BFF806F5807607F580775FEA79
:100530000800A8F1010101F0FF08EED14A4631465A
:10054000384600F0AFF84CE0B8F1000F18D1A945DB
:1005500010DDA9EB050000F0FF0B2A4631463846B6
:1005600000F0A0F82E442F445A463146384600F099
:1005700099F836E022463146384600F093F830E0EC
:10058000601B84B22046E11704EB1161C1F3072818
:10059000E11704EB11610912A4EB012101F0FF093D
:1005A0002A463146384600F07DF82E442F4409E0B3
:1005B0004FF480723146384600F074F806F58076C4
:1005C00007F580775FEA0800A8F1010101F0FF0854
:1005D000EED1B9F1000F04D04A463146384600F05A
:1005E00061F8BDE8F09F000000B587B00121080365
:1005F000FFF7BAFE0121C420FFF7B6FE1020ADF8C8
:10060000040003208DF8060010208DF8070001A9D2
:100610002248FFF7E4FD2020ADF8040018208DF8F3
:10062000070001A91D48FFF7DAFD4020ADF80400DE
:1006300001A91A48FFF7D3FD8020ADF8040001A9F5
:100640001648FFF7CCFD10211448FFF755FE002097
:10065000ADF808004FF48270ADF80A000020ADF844
:100660000C000220ADF80E000120ADF81000400291
:10067000ADF812000820ADF814000020ADF8160007
:100680000720ADF8180002A9054800F027F901215C
:100690000348FFF7E3FE07B000BD0000000801407B
:1006A0000030014070B505460C46164600F0E8F8EB
:1006B00010211548FFF71EFE022000F08BF8C4F34E
:1006C000074000F087F8C4F3072000F083F8E0B299
:1006D00000F080F8B6F5807F04DD4FF480760BA043
:1006E00000F0AEFA03E0287800F074F86D1C3000DA
:1006F000A6F101018EB2F6D110210348FFF7FCFDEF
:1007000000F0A4F870BD0000000801403C3C2D46FC
:100710004C4153482D4552524F522D3E3E2053508E
:10072000495F464C4153485F506167655772697431
:100730006520746F6F206C61726765210A0000008C
:100740002DE9F041002400250026002710210F4844
:10075000FFF7D0FD9F2000F03DF8FF2000F03AF8B1
:100760000546FF2000F036F80646FF2000F032F87C
:10077000074610210548FFF7BFFD280440EA062080
:1007800040EA07042046BDE8F0810000000801406F
:1007900010B5044600F074F800F058F810210C4829
:1007A000FFF7A8FD202000F015F8C4F3074000F083
:1007B00011F8C4F3072000F00DF8E0B200F00AF8D9
:1007C00010210348FFF798FD00F040F810BD00002D
:1007D0000008014010B504464FF4805019490860E4
:1007E0000AE018490868411E164A116020B9002025
:1007F00000F092F8C0B210BD0221134800F060F87A
:100800000028EED02146104800F066F84FF48050E2
:100810000C4908600AE00B490868411E094A11604A
:1008200020B9012000F078F8C0B2E4E701210648C1
:1008300000F046F80028EED0034800F04AF8C0B2B5
:10084000D9E700004C0000200030014010B5002422
:1008500010210A48FFF74EFD0520FFF7BBFF00BF40
:10086000FF20FFF7B7FF044604F001000028F7D18E
:1008700010210248FFF740FD10BD000000080140B4
:1008800010B510210548FFF735FD0620FFF7A2FF40
:1008900010210248FFF730FD10BD000000080140A4
:1008A00010B510210548FFF725FDAB20FFF792FF9B
:1008B00010210248FFF720FD10BD00000008014094
:1008C0000246002013890B400BB1012000E00020FC
:1008D00070470146888970478181704710B50022B2
:1008E000028802F441520B884C8823438C882343AE
:1008F000CC8823430C8923434C8923438C8923438D
:10090000CC8923431A430280838B4FF2FF74234028
:1009100083830B8A038210BD10B50446214602A0D2
:1009200000F08EF9002010BD3C3C2D464C41534850
:100930002D4552524F522D3E3E2053504920B5C8AE
:10094000B4FDB3ACCAB1216572726F72436F646556
:10095000203D2025640A0000704710B500F002F821
:1009600010BD00000CB500200190009033480068D5
:1009700040F480303149086000BF3048006800F41E
:10098000003000900198401C0190009818B901981F
:10099000B0F5A06FF1D12948006800F4003010B123
:1009A0000120009001E0002000900098012843D130
:1009B0002348006840F0100021490860084600689C
:1009C00020F0030008600846006840F0020008605C
:1009D0001A48406819494860084640684860084617
:1009E000406840F4806048600846406820F47C100D
:1009F00048600846406840F4E810486008460068CF
:100A000040F08070086000BF0C48006800F0007083
:100A10000028F9D00948406820F0030007494860E1
:100A20000846406840F00200486000BF0348406844
:100A300000F00C000828F9D10CBD000000100240A5
:100A4000002002407047000010B51348006840F0D5
:100A500001001149086008464068104908400E49E5
:100A60004860084600680E4908400B49086008467F
:100A7000006820F4802008600846406820F4FE00EA
:100A800048604FF41F008860FFF767FF4FF0006079
:100A90000449086010BD0000001002400000FFF88B
:100AA000FFFFF6FE08ED00E021B1828942F400521A
:100AB000828104E082894DF6FF731A40828170477B
:100AC00000B585B001210420FFF74EFC0121880309
:100AD000FFF74AFC4FF40070ADF8100018208DF8B5
:100AE000130003208DF8120004A91348FFF777FBC9
:100AF0004FF48060ADF8100004208DF8130004A9B5
:100B00000D48FFF76CFB4FF4E13000900020ADF88A
:100B10000400ADF80600ADF80800ADF80C000C209C
:100B2000ADF80A006946054800F018F801210348AD
:100B3000FFF7BAFF05B000BD0008014000380140D2
:100B400002460020B1F5007F00D100BF13880B40A2
:100B50000BB1012000E00020704700002DE9F047B4
:100B600086B005460E460024A24600BFA1460027D7
:100B7000B08900B100BF2F462C8A4CF6FF700440AC
:100B8000F08804432C82AC894EF6F3100440B08800
:100B900031890843718908430443AC81AC8A4FF61C
:100BA000FF400440B0890443AC8201A8FFF7ECFB8E
:100BB0001F48874202D1DDF810A001E0DDF80CA04B
:100BC000A88900F4004040B10AEBCA0000EB0A100B
:100BD00031684900B0FBF1F807E00AEBCA0000EB0E
:100BE0000A1031688900B0FBF1F86420B8FBF0F01E
:100BF00004012009642101FB1089A88900F4004048
:100C000040B1322000EBC900B0FBF1F000F007006A
:100C1000044308E0322000EB09106421B0FBF1F03E
:100C200000F00F0004432C8106B0BDE8F0870000FF
:100C300000380140C1F308028280704700BFFEE720
:100C40000FB4054B10B503A9044A029800F02CF824
:100C500010BC5DF814FB00009D3900085C0000200A
:100C60000FB4084B10B504A902AA039800F01CF8B1
:100C7000044602A9002000F0B8F9204610BC5DF837
:100C800014FB0000EB0F000802E008C8121F08C1A7
:100C9000002AFAD170477047002001E001C1121FFD
:100CA000002AFBD1704700002DE9FF4F8BB088462A
:100CB0000546002606E025280BD0DDE90D129047F9
:100CC0006D1C761C28780028F5D10FB03046BDE8A1
:100CD000F08F0024A146A2460122AE4900E0044361
:100CE00015F8013F203B02FA03F00842F7D12878BB
:100CF0002A2810D06FF02F022878A0F1300109299E
:100D000015D809EB890102EB410144F0020400EB24
:100D100001096D1CF0E758F8041B5FEA010903D5CF
:100D200044F40054C9F1000944F002046D1C287811
:100D30002E2817D115F8010F44F004042A280ED0EC
:100D40006FF02F022878A0F1300109290AD80AEBA8
:100D50008A0102EB410100EB010A6D1CF2E758F831
:100D600004AB6D1C28786C280FD006DC4C2817D0FB
:100D700068280DD06A2814D104E0742810D07A288D
:100D80000FD10DE044F400140AE044F4801401E0B3
:100D900044F440146978814202D104F580146D1C3A
:100DA0006D1C2878692865D006DC00288DD0632862
:100DB00027D0642806D15DE06E2808D073282AD099
:100DC000752877D0DDE90D129047761CE0E0C4F37A
:100DD0000250022809D003280DD0D8F800100428AA
:100DE0000DD00E6008F10408D2E0D8F80010F21718
:100DF000C1E90062F6E7D8F800100E80F2E70E7045
:100E0000F0E718F8041B8DF8001000208DF80100A1
:100E1000EB46012003E058F804BB4FF0FF306107B8
:100E20004FF0000701D40AE07F1C57450DDA8742D6
:100E3000FADB1BF807100029F6D106E07F1C874279
:100E4000FCDB1BF807100029F8D1DDE90D23A9EB25
:100E500007008146214600F0B1F83044C61904E08D
:100E6000DDE90D121BF8010B90477F1EF8D22146D9
:100E7000484688E058F8040BC4F302514FF00A0BBF
:100E8000032900D100B2042900D140B2002802DABF
:100E900040422D2102E0210505D52B218DF824109B
:100EA000012104E006E0E10710D02021F6E708AFB9
:100EB000089113E058F8040BC4F302514FF00A0BE9
:100EC000032900D180B2042900D1C0B20021EEE78D
:100ED0005946FFF759F9303107F8011D0028F7D1BD
:100EE000ADEB070000F1200B600702D524F480343D
:100EF00001E04FF0010ADA4502DDAAEB0B0000E049
:100F00000020824600EB0B0108980144A9EB010088
:100F10000A90E00306D4DDE90D2321460A9800F08B
:100F20004DF806444FF0000908E009A911F809003E
:100F3000DDE90D12904709F10109761C08998945F0
:100F4000F3DBE0030CD5DDE90D2321460A9800F020
:100F500035F8064404E0DDE90D1230209047761C98
:100F6000BAF10001AAF1010AF5DC05E0DDE90D1294
:100F700017F8010B9047761CBBF10001ABF1010B98
:100F8000F4DC0A982146DDE90D2300F005F806445B
:100F90006D1C97E6092801002DE9F0410446002563
:100FA0001E461746880404D405E039462020B04781
:100FB0006D1C641EF9D52846BDE8F0812DE9F0418D
:100FC000044600251E469046C80301D5302700E0A0
:100FD0002027880404D505E041463846B0476D1CFB
:100FE000641EF9D52846BDE8F0810A68531C0B60E1
:100FF0001070704770B504460D4600202071401EE9
:10100000E0622946204603F0FDFA08B1032070BDD6
:1010100094F82E1294F82F0241EA00204AF6552146
:10102000884201D00220F2E794F86900010694F8A2
:10103000680041EA004194F8670041EA002094F812
:101040006610084320F07F400D49884201D10020FE
:10105000DDE794F88500010694F8840041EA004138
:1010600094F8830041EA002094F88210084320F0AD
:101070007F400349884201D10020C8E70120C6E72C
:1010800046415400024600E0521C107810B110781E
:101090008842F9D1107870470246891E5069801E37
:1010A000884201D8002070479378906A01FB0300C2
:1010B000F9E700002DE9F04780460C46A17EE07E6E
:1010C00041EA002010B10020BDE8F087207800F050
:1010D0003F00401E00EB800101EBC0064FF001090C
:1010E000002524E01A48405D205C1949495D2144EF
:1010F000497840EA0127B9F1000F11D0FF2E0BD239
:10110000384602F0B1F882463146761C38F81100B4
:1011100002F0AAF8824501D00020D5E7B94605E0E3
:101120004FF6FF70874201D00020CDE76D1C0D2DDA
:10113000D8D3207800F0400038B1B9F1000F04D0C6
:1011400038F8160008B10020BEE70120BCE7000017
:10115000084B00082DE9F04704468946B9F1000F15
:1011600006D1E76817B16069B84215D8012713E0C6
:101170004946204602F08AFC0646022E02D2012091
:10118000BDE8F087701C08B93046F9E76069B042E5
:1011900001D93046F4E74F463D4600BF6D1C6069FB
:1011A000A84204D80225BD4201D90020E8E729461B
:1011B000204602F06BFC064606B909E0701C08B137
:1011C000012E01D13046DBE7BD42E7D10020D7E751
:1011D00000BF6FF070422946204603F06DFA80464A
:1011E000B8F1000F08D1B9F1000F05D02A464946E1
:1011F000204603F061FA8046B8F1000F0BD1E5609C
:101200002069401C78B12069401E2061607940F05F
:101210000100607107E0B8F1010F02D14FF0FF301B
:1012200000E0012005462846AAE700002DE9F34F1B
:1012300083B0814604980068019002E00198401C48
:101240000190019800782F28F8D0019800785C2848
:10125000F4D0D9F81CA000252F4600BF38467F1CCB
:1012600001990C5C202C03DB2F2C01D05C2C00D1CD
:1012700032E0FF2D03D3062005B0BDE8F08FE4B2C5
:10128000812C13DBE0B2FE2810DC38467F1C01996C
:101290000E5C06EB042084B2402E01DB7E2E05DDC1
:1012A000802E01DBFE2E01DD0620E5E70121204630
:1012B00001F09CFF04460CB90620DDE7802C06DA1D
:1012C000214671A0FFF7DEFE08B10620D4E72846CC
:1012D0006D1C2AF81040C1E700BF0198C11904989D
:1012E0000160202C01DA042000E00020804608E0A4
:1012F000681E3AF81040202C02D02E2C00D002E0BC
:101300006D1E002DF4D100BF0DB90620B4E70020FA
:101310002AF815000B222021D9F8180002F0DEFF70
:10132000002700E07F1C3AF817002028FAD03AF88E
:1013300017002E28F6D00FB148F0030800E06D1E0C
:1013400025B1681E3AF810002E28F8D10020064674
:1013500002904FF0080B00BF38467F1C3AF810404F
:1013600004B963E0202C03D02E2C04D1AF4202D06C
:1013700048F00308F0E70298584501D2AF4214D173
:10138000BBF10B0F02D148F003084FE0AF4201D090
:1013900048F00308AF4200D948E02F4608200290E9
:1013A0004FF00B0BB006060ED6E7802C09DB20466B
:1013B00001F05AFF0021009001F018FF044648F0A8
:1013C0000208FF2C11DDABF101000299884204D81C
:1013D00048F00308CDF808B0BEE72212D9F818305B
:1013E0000298411C02911A5419E024B1214629A007
:1013F000FFF748FE18B15F2448F003080FE0412CC6
:1014000004DB5A2C02DC46F0020608E0612C06DB05
:101410007A2C04DC46F00106A4F1200084B2D9F84D
:1014200018300298411C02911C5495E700BFD9F86E
:1014300018000078E52803D10520D9F818100870A5
:10144000BBF1080F01D1B006060E06F00C000C2807
:1014500003D006F00300032801D148F0020808F089
:10146000020058B906F00300012801D148F0100825
:1014700006F00C00042801D148F00808D9F818003B
:1014800080F80B800020F7E6222A3A3C3E3F7C7F22
:10149000000000002B2C3B3D5B5D00002DE9F0417E
:1014A00004460E460021204600F065FA0546EDB9D7
:1014B000002700BF2169206803F0A4F8054605B1A4
:1014C00013E060690078E52802D06069007820B9EF
:1014D000781C0746B04201D107E0002701212046D1
:1014E00000F07FF80546002DE4D000BF042D00D1A8
:1014F00007252846BDE8F0812DE9F0470446002184
:10150000204600F038FA074617B13846BDE8F087A4
:101510004FF0FF09CA464FF6FF70208400BF2169D3
:10152000206803F06FF8074607B157E065692E7829
:101530000EB9042752E0E87A00F03F08E52E05D006
:1015400008F0080040B1B8F10F0F05D04FF0FF09C7
:101550004FF6FF7020843AE0B8F10F0F1CD1E0691C
:1015600078B306F0400030B195F80DA026F04006A3
:10157000B146E08820844E450AD1687B504507D1AA
:101580002946E069FFF796FD10B1A9F1010000E0DE
:10159000FF2000F0FF091AE0B9F1000F05D128463D
:1015A00003F0FCF9504500D118E0A069C07A00F0C2
:1015B000010038B90B222846A16902F06FFE08B974
:1015C0000CE004E04FF0FF094FF6FF70208400218B
:1015D000204600F006F80746002FA0D000BF38468E
:1015E00094E72DE9F04104468846E088461CB0B2F5
:1015F00008B1206910B90420BDE8F081216848894C
:10160000C11700EBD1614911B6FBF1F201FB126188
:10161000002971D12069401C2061E06828B9206848
:101620000089B04268D80420E6E721684889C117DC
:1016300000EBD1614911B6FBF1F122689278521E9C
:101640001140002958D1E168206802F01FFA0546D0
:10165000012D01D80220CFE7681C08B90120CBE793
:1016600020684069A84241D8B8F1000F01D1042098
:10167000C2E7E1682068FFF76DFD05460DB9072058
:10168000BAE7012D01D10220B6E7681C08B9012094
:10169000B2E7206803F0F6F908B10120ACE7216851
:1016A0004A8901F13000002102F018FE2946206825
:1016B000FFF7F2FC2168C86200270EE001202168D4
:1016C0000871206803F0DEF908B1012094E7206872
:1016D000C06A401C2168C8627F1C20688078B842BC
:1016E000ECD82068C06AC01B2168C862E560294642
:1016F0002068FFF7D1FC2061E68021684889C11786
:1017000000EBD1614911B6FBF1F201FB12612268D5
:10171000303202EB4111616100206DE72DE9F05F8D
:1017200004468A464FF0FF09CB4604274FE0216963
:10173000206802F067FF074607B14BE0666935781D
:101740000DB9042746E0F07A00F03F08E52D0AD0F5
:101750002E2D08D028F02000082801D1012000E01B
:101760000020504502D04FF0FF0929E0B8F10F0FDB
:101770001AD105F0400030B196F80DB025F04005C3
:10178000A946E08820844D450AD1707B584507D191
:101790003146E06902F050FF10B1A9F1010000E00C
:1017A000FF2000F0FF090BE0B9F1000F04D1304633
:1017B00003F0F4F8584502D04FF6FF70208409E09A
:1017C00000212046FFF70DFF074607B102E0206920
:1017D0000028ACD100BF0FB1002020613846BDE821
:1017E000F09F2DE9FE4F0446D4F81880D4F81C90E1
:1017F0000C224146684602F064FD00BF9DF80B00D4
:1018000000F0010020B3002088F80B00E061012601
:101810000CE033464A466946404602F0D1F820467D
:10182000FFF76AFE054605B102E0761C642EF0D390
:1018300000BF642E02D10720BDE8FE8F042D01D029
:101840002846F9E79DF80B0088F80B00C4F81C90B7
:101850009DF80B0000F0020060B1002600E0761C4D
:1018600039F816000028FAD106F119000D21B0FB55
:10187000F1F700E0012739462046FFF70FFE054645
:1018800045BB781E070025D0E088C11B204600F02C
:1018900072F80546F5B9A06903F080F8824600BFEA
:1018A0002169206802F0AEFE054605B111E0FAB2EA
:1018B00053466169E06901F0E9FF01202168087180
:1018C00000212046FFF78DFE054615B9781E07005A
:1018D000E6D100BFC5B92169206802F093FE054634
:1018E00095B920220021606902F0F8FC0B22D4E9AE
:1018F000050102F0E6FCA069C07A00F018006169F9
:101900000873012021680871284695E770B50446E0
:10191000E688208C4FF6FF72904201D1304600E0FD
:10192000208C0146204600F026F805460DBB00BF7E
:101930002169206802F066FE054605B115E0202207
:101940000021606902F0CAFCE5206169087001208D
:1019500021680871E088B04200D306E000212046EB
:10196000FFF73FFE0546002DE2D000BF042D00D159
:101970000225284670BD2DE9F04104460E46E6805A
:10198000A568012D03D020684069A84202D8022032
:10199000BDE8F0812DB920680078032801D12068C6
:1019A000456A45B920680089B04201D80220EFE7B6
:1019B0002068476A24E021684889C11700EBD1619B
:1019C00049112268927801FB02F812E0294620684A
:1019D00002F05CF80546681C08B90120D8E7022D22
:1019E00003D320684069A84201D80220D0E7A6EBC3
:1019F00008064645EAD229462068FFF74DFB074610
:101A0000E5600FB90220C3E721684889C11700EBE0
:101A1000D1614911B6FBF1F139442161216848894E
:101A2000C11700EBD1614911B6FBF1F201FB126164
:101A30002268303202EB411161610020A8E770B5E5
:101A40000446012614B1012C11D100E011E0FEF78B
:101A5000CBFD4FF4FA7500BF681E80B20500FBD1C4
:101A6000FEF71EFF012000F049F8064601E00126BE
:101A700000BF00BF304670BD10B50346042013B14F
:101A8000012B16D100E016E0012904D0022906D06E
:101A900003290BD107E04FF4A064146006E04FF473
:101AA0008054148002E00124146000BF00BF0020B5
:101AB00001E0042000BF00BF10BD2DE9F041054644
:101AC0000E4614461F464FF0040815B1012D0ED1E5
:101AD00000E00FE004F202344FF6FF7000EA073234
:101AE00021033046FEF7C6FC4FF0000802E04FF03D
:101AF000040800BF00BF4046BDE8F08170B5044651
:101B0000012514B1012C0BD100E00BE0FEF718FE0B
:101B10000649884202D125F0010500E0012501E0D7
:101B2000012500BF00BF284670BD00001740EF0030
:101B30002DE9F0470746884614461D464FF0040934
:101B400015B90420BDE8F08717B1012F12D100E0CC
:101B500013E004F2023426033046FEF719FE4FF676
:101B6000FF7000EA053231464046FEF7ABFC4FF00D
:101B7000000902E04FF0040900BF00BF4846E1E75A
:101B800070B50546284601F07CF9044634B928466C
:101B900002F0A1FF04460CB900202860204670BD69
:101BA00070B50446204602F096FF05460DB90020A8
:101BB0002060284670BD2DE9F74F82B08A4600228A
:101BC00002A9049801F076FC019004980468019839
:101BD00000286DD1D4E90410801E814203D8206909
:101BE000CAF8000064E094F800B00026BBF1010FD1
:101BF0001CD1022700BF3946204601F047FF80462E
:101C000008F1010010B9012001900EE0B8F1010FB8
:101C100002D10220019008E0B8F1000F00D1761C3B
:101C2000781C074661698842E5D33AE06769206A13
:101C300000904FF00009002500BFB9F1000F0ED150
:101C40000098421C01462046009202F0DBFC019005
:101C5000019800B124E004F13005B4F80A90BBF11A
:101C6000020F09D12878697840EA012000B9761C72
:101C7000AD1CA9F1020910E0E8780006A97840EA55
:101C80000140697840EA01202978084320F070403B
:101C900000B9761C2D1DA9F10409781E0700CCD1CE
:101CA00000BF2661607940F001006071CAF80060F1
:101CB000019805B0BDE8F08F2DE9F04704460E46C7
:101CC000204602F008FF8246BAF1000F02D05046CB
:101CD000BDE8F087E07908B1E079F9E7E068B04263
:101CE00004D2A07900F0020000B9E668D4F80890A8
:101CF0004FF00008C4F80880002E71D0206880786A
:101D00002168498900FB01F7B9F1000F11D0701E5D
:101D1000B0FBF7F1A9F10100B0FBF7F0814208D365
:101D2000A9F10100791E8843A060A068361A656990
:101D300012E025697DB900212068FFF70BFA0546FE
:101D4000012D02D10220E071C2E7681C10B9012008
:101D5000E071BDE725616561002D41D023E0A079E8
:101D600000F0020038B129462068FFF7F3F9054674
:101D700035B93E4619E02946206801F087FE054640
:101D8000681C10B90120E071A2E7012D03D9206879
:101D90004069A84202D80220E07199E76561A06815
:101DA0003844A060F61BBE42D9D800BFA0683044BA
:101DB000A06020684089B6FBF0F100FB116078B1AB
:101DC00029462068FFF768F98046B8F1000F02D174
:101DD0000220E0717CE720684089B6FBF0F0804487
:101DE00021684989A068B0FBF1F201FB120020B321
:101DF000A069404521D0A07900F0400078B1216869
:101E00004878012304F12401A269FFF791FE10B183
:101E10000120E0715CE7A07920F04000A07121680A
:101E200048780123424604F12401FFF746FE10B131
:101E30000120E0714CE7C4F81880D4E9020188421F
:101E400005D9A068E060A07940F02000A07150465C
:101E50003EE72DE9F147ADF50D7D01F0B7FE0646F1
:101E600001228DA984A801F025FB0546002D6FD124
:101E700081A88A9001A88B9084A88D9901F046FDD5
:101E8000054605B9082500BF042DF0D1002184982E
:101E9000FFF760F90746002507B90725012F00D194
:101EA0000225781C00B901251DB9849802F0EAFDCD
:101EB0000546002D5BD139468498FFF7EDF8814641
:101EC000849800F13004849842890021204602F071
:101ED00005FA0B222021204602F000FA2E20207065
:101EE0001020E072A675310AE175310C2176310EB1
:101EF00061763946204602F049FD2022214604F150
:101F0000200002F0DEF92E2084F82100DDF818A26E
:101F100084980078032804D18498406A504500D101
:101F2000AA46514604F1200002F030FD849890F852
:101F3000028018E08498C0F82C9009F10109012072
:101F400084990871849802F09DFD05460DB10DE05D
:101F50002DE0849842890021204602F0BFF9A8F1C3
:101F6000010000F0FF08B8F1000FE3D100BF1DB978
:101F700084A8FFF736FC054625B13946849802F05F
:101F800081FC14E0899C1020E072A675310AE1758D
:101F9000310C2176310E61763946204602F0F6FC8E
:101FA000012084990871849802F008FD05462846AE
:101FB0000DF50E7DBDE8F0872DE9F74F90B0914605
:101FC0001198012803DD132013B0BDE8F08F10A88D
:101FD00001F088FE0F900F98002801DA0B20F3E73C
:101FE000FA490F9851F820500DB90C20ECE7002069
:101FF00028700F98C0B20C9000200B900C98FFF73F
:102000001EFD0190019800F0010008B10320DBE7FC
:10201000019800F0040008B10A20D5E705F10A0292
:1020200002210C98FFF728FD38B96889B0F5805F68
:1020300003DC6889B0F5007F01DA0120C4E700BF46
:1020400004AA01210C98FFF717FD10B90498802805
:1020500001D20120B8E7119808B1002000E03F202C
:1020600082460498A0EB0A000490A9F1010000EA5E
:10207000090008B14FF00009B9F1000F1AD16889C1
:10208000C11700EBD15149124FF4FA6292FBF1F102
:10209000049AB2FBF1F10A914FF0000B01E00BF151
:1020A000010BCB4830F81B100A988142F7D8C94879
:1020B00030F81B90B9F5007F02D36889B9FBF0F9BD
:1020C000B9F1000F01D14FF00109B9F1800F01D929
:1020D0004FF080090498B0FBF9F8012640F6F6703D
:1020E000804500D302264FF6F670804500D30326C4
:1020F000032E0CD1082000EB880069890844401E9B
:10210000B0FBF1F7202003900020029019E0012E8F
:1021100005D108EB4800401C4008C01C02E04FEA13
:102120004800001D074668893844401E6989B0FB95
:10213000F1F70120039068894FF48041B1FBF0F082
:1021400002900398504407900798384406900299EB
:1021500006980844059005984844A0EB0A000499A5
:10216000884201D90E202FE709AA03210C98FFF716
:1021700083FC28B9099818B10998B0F5004F01D926
:1021800001200990099905980844401E491E88437A
:10219000099009990598081A0990032E08D1099900
:1021A000039808440390099907980844079001E0B0
:1021B00009980744DDE90301081AC11B0298081AAF
:1021C000B0FBF9F8022E03D140F6F670804505D336
:1021D000032E05D14FF6F670804501D20E20F3E6AE
:1021E000032E02D10C200D9010E0012E06D1049890
:1021F000B0F5803F02D201200D9007E00498B0F5C1
:10220000803F01D2042000E006200D9000BF11980D
:1022100010B1F0200E9043E06A89002105F13000F2
:1022200002F05CF805F5F77401206070A0700020E2
:10223000E0700D982071FE206071049850443F2199
:10224000B0FBF1F0FF21B0FBF1F009903F210998BC
:1022500041EA9000A0710998E0713F2020720021AE
:102260006172A172E172049820730498010A61738B
:102270000498010CA1730498010EE173552185F8AF
:102280002E12AA2185F82F120123002205F1300118
:102290000C98FFF74DFC08B1012095E6F8200E9050
:1022A00005F130046A890021204602F017F80B225C
:1022B00049A1204602F005F8B5F80AB084F80BB041
:1022C0004FEA1B21217384F80D900398A0730398A3
:1022D000010AE17301202074032E01D1002001E0E6
:1022E0004FF40070834684F811B04FEA1B21A174AB
:1022F0000498B0F5803F05D20498E0740498010A70
:10230000217510E0049884F820000498C0F3072198
:10231000212001550498C0F307412220015504985B
:10232000010E232001550E9860753F202076002174
:102330006176FF20A076E17684F81CA04FEA1A218E
:1023400061774FEA1A41A1774FEA1A61E17701F00C
:102350003DFC0990032E4BD1099884F8430009985D
:10236000C0F30721442001550998C0F307414520D7
:1023700001550998010E4620015584F82470C7F3D1
:10238000072125200155C7F3074126200155390EA5
:1023900027200155022084F82C0000212D20015512
:1023A0002E2001552F200155012084F830003120C6
:1023B0000155062084F8320033200155802084F82E
:1023C0004000292084F8420013220BE05000002036
:1023D000164B00082C4B0008EBFE904D53444F5316
:1023E000352E30008AA104F1470001F06AFF1FE09A
:1023F000099884F827000998C0F30721282001557F
:102400000998C0F30741292001550998010E2A2097
:102410000155A775390AE175802084F82400292028
:1024200084F8260013227FA104F12B0001F049FF5C
:10243000552084F8FE01AA2140F2FF100155012326
:10244000524621460C98FFF773FB08B10120BBE50B
:10245000032E06D101230AF1060221460C98FFF74C
:1024600067FB079808904FF0000B5FE06A89002136
:10247000204601F033FF0E980990032E14D0012E50
:1024800001D16D4801E06FF0FF0009990843099000
:10249000099820700998000A60700998000CA070D3
:1024A0000998000EE07019E0099860F0FF000990AB
:1024B000099820700998000A60700998000CA070B3
:1024C0000998000EE070FF202071FF216171A17159
:1024D000E17120726172A1720F21E1720898411CB2
:1024E00002460123089121460C98FFF721FB08B111
:1024F000012069E56A890021204601F0EFFE0120F4
:1025000009900EE00898411C0246012308912146DB
:102510000C98FFF70DFB08B1012055E50998401C08
:1025200009900998B842EDD30BF1010BBBF1000FF4
:102530009CD0032E01D1484600E00298834600BF9C
:102540000898411C02460123089121460C98FFF788
:10255000EFFA08B1012037E5ABF101005FEA000BAB
:10256000EED1032E49D15220207060706120A070FE
:102570004120E070722084F8E401722140F2E510FD
:1025800001554121401C01556121401C0155A8F114
:10259000010084F8E801C0F3072140F2E910015579
:1025A000A8F10100C0F307414FF4F5700155A8F1FF
:1025B0000100010E40F2EB100155022084F8EC01FD
:1025C000002140F2ED100155401C0155401C015501
:1025D000552084F8FE01AA2140F2FF100155012385
:1025E0000AF1010221460C98FFF7A2FA01230AF131
:1025F000070221460C98FFF79BFA002211460C981F
:10260000FFF73AFA08B10120DEE40020DCE4000024
:102610004E4F204E414D452020202046415433321C
:10262000202020004E4F204E414D452020202046A6
:10263000415420202020200000FFFF00F7B582B089
:1026400016460398019001A801F04CFB0546002DA9
:1026500002DA0B2005B0F0BD0E4850F825400CB151
:1026600000202070029810B10020029908700949DA
:10267000029841F82500029808B1012E01D00020EF
:10268000E8E7002203A902A800F014FF0746384635
:10269000E0E70000500000202DE9F743ADF50C7D88
:1026A0000546164625B909200DF50F7DBDE8F083D6
:1026B0000020286006F01F0626F001028DA983A8DD
:1026C00000F0F8FE0746002F74D180A88990CDF85D
:1026D00028D283A88D9901F019F90746889C0FB973
:1026E00004B9062706F01C0000285CD04FB1042F67
:1026F00003D183A8FFF775F8074646F00806889CC3
:1027000009E0E07A00F0110008B1072703E006F0C5
:10271000040000B10827002F55D106F0080000285A
:1027200051D001F053FA804684F80E804FEA182108
:10273000E1734FEA184121744FEA1861617484F81B
:1027400016804FEA1821E1754FEA184121764FEAC9
:10275000186161760020E072207700216177A1770F
:10276000E1772146839801F0E2FA81460021204674
:1027700002F00CF9012083990871B9F1000F22D001
:102780008398D0F82C804946839802F07BF807465E
:10279000CFB9A9F101008399C8604146839801F03F
:1027A00031FF07460FE077B9E07A00F0100010B172
:1027B000042708E02DE006F0020020B1E07A00F0E6
:1027C000010000B1072747B906F0080008B146F03C
:1027D00020068398C06AE8612C62D7B9AE710020E8
:1027E000E8712146839801F0A2FA2861E07F010692
:1027F000A07F41EA0041607F41EA0020217F084339
:10280000E8600020A860A861839828602868C088D4
:10281000A880384648E733B5ADF5057D04461CB9B8
:1028200009200DF5077D30BD002286A984A800F09F
:1028300041FE05462DBB8498206081A8A06101A8B7
:10284000E0612046869901F061F80546B5B96069F6
:1028500058B16069C07A00F0100028B161698498AD
:1028600001F065FAA06000E005253DB98498C088B4
:10287000A08000212046FFF77EF80546042D00D1F8
:1028800005250DB1002020602846CAE70FB42DE9C8
:10289000F04F9BB02498019000200290039026A84E
:1028A0001A9000BF259810F8014B259004B90DE14E
:1028B000252C04D0214601A801F0C2FFF2E7002038
:1028C00006468146259810F8014B2590302C05D1FD
:1028D0000126259810F8014B259006E02D2C04D1F7
:1028E0000226259810F8014B259009E009EB890094
:1028F00004EB4000A0F13009259810F8014B259019
:10290000302C01DB392CF1DD6C2C01D04C2C05D1A5
:1029100046F00406259810F8014B259004B9D5E03F
:102920002546612D04DB7A2D02DCA5F12000C5B21D
:102930004F2D49D006DC422D43D0432D38D0442DB5
:102940004CD144E0532D04D0552D41D0582D45D1C4
:1029500041E01A9850F804BB1A904FF0000801E0CB
:1029600008F101081BF808000028F9D106F0020060
:1029700048B903E0202101A801F062FF404608F1B8
:1029800001084845F6D304E01BF8011B01A801F03B
:1029900057FF9BF800000028F6D103E0202101A892
:1029A00001F04EFF404608F101084845F6D379E7AB
:1029B0001A9810F8042BD1B21A9001A801F040FF28
:1029C00070E7022019900EE0082019900BE000BF7C
:1029D0000A20199007E01020199004E0214601A870
:1029E00001F02EFF5EE700BF06F0040028B11A9840
:1029F00000681A99091D1A910CE0442D05D11A9806
:102A000000681A99091D1A9104E01A9800681A9929
:102A1000091D1A918246442D06D10AF0004018B1D2
:102A2000CAF1000A46F00806002700BF1998BAFB51
:102A3000F0F100FB11A0C5B21998BAFBF0FA092D0C
:102A400006DD782C01D1272000E007202844C5B2FC
:102A500005F13000C2B238467F1C14A90A54BAF1FD
:102A6000000F01D0102FE1D306F0080020B12D2275
:102A700038467F1C14A90A54B84606F0010008B174
:102A8000302000E02020054603E0294601A801F09F
:102A9000D7FE06F0020020B9404608F1010848457B
:102AA000F3D300BF781E074614AA115C01A801F0F9
:102AB000C7FE002FF6D103E0294601A801F0C0FEB1
:102AC000404608F101084845F6D3EBE600BF002078
:102AD0001A900298002810DB18AB04A9DDE9010266
:102AE00000F07EFA48B918990298884205D10398F7
:102AF0001BB0BDE8F00F5DF814FB4FF0FF30F7E7B7
:102B00002DE9FF4F85B0044615469A46DDF818B00A
:102B10000020CAF80000204601F0DDFF0490049870
:102B200018B1049809B0BDE8F08FE07908B1E079F8
:102B3000F8E7A07900F0010008B90720F2E7D4E92E
:102B40000210401A02900298854200D9029DBAE014
:102B500021684989A068B0FBF1F201FB120000284E
:102B600077D121684989A068B0FBF1F021688978A4
:102B7000491E084000F0FF09B9F1000F17D1A06805
:102B800010B92069039004E06169206800F07EFFBD
:102B900003900398022802D20220E071C2E7039852
:102BA000401C10B90120E071BCE7039860616169C5
:102BB0002068FEF771FA064616B90220E071B1E707
:102BC0004E4420684089B5FBF0F8B8F1000F2DD0D5
:102BD00009EB080021688978884203D92068807849
:102BE000A0EB090821684878434632465946FEF76B
:102BF00064FF10B10120E07194E7A07900F040007B
:102C000078B1A069801B40450BD2A169891B23685C
:102C10005B8901FB03B021684A8904F1240101F0BA
:102C200050FB2068408900FB08F742E0A069B042F1
:102C300020D0A07900F0400080B1216848780123BD
:102C400004F12401A269FEF773FF18B10120E071BD
:102C500068E710E0A07920F04000A0712168487872
:102C60000123324604F12401FEF727FF10B10120B1
:102C7000E07157E7A66121684989A068B0FBF1F2CD
:102C800001FB1200216849890F1AAF4200D92F4673
:102C900021684989A068B0FBF1F201FB120104F13F
:102CA000240008443A4601460190584601F009FBC9
:102CB00000BFBB44A0683844A060DAF80000384484
:102CC000CAF80000ED1B002D7FF442AF002029E779
:102CD00070B5ADF5047D04460E46204601F0FBFEBE
:102CE00005461DBB2EB900212046FEF744FE0546D1
:102CF0001CE081A8A06101A8E06100212046FEF748
:102D00000DFD0546042D02D10020206100256DB97E
:102D10003146204600F05EFF00212046FEF761FCB0
:102D20000546042D02D100202061002528460DF51E
:102D3000047D70BDF3B5ADF51B7D01229BA992A862
:102D400000F0B8FB0446002C75D19298899080A8B9
:102D50009890CDF864D292A89B9900F0D7FD0446D4
:102D600000BF002C67D1979808B9042463E09798B6
:102D700000F10B01152283A801F0A3FA242292A9E5
:102D800089A801F09EFA9CA800F0ACFF002805DBA2
:102D900089A89C9900F0BAFD044600E00B2404B910
:102DA0000824042C47D189A8FEF71BFD0446002CFB
:102DB00041D18E9D13220DF20E2105F10D0001F07F
:102DC00080FA9DF80C0240F02000E87201209299F0
:102DD0000871E87A00F0100018B38B999498884233
:102DE0001FD02946929800F0A2FF074639469298D4
:102DF000FEF752F906460EB9022412E031469298C7
:102E000001F000FC0446929800F150054CB9687836
:102E10002E2806D128468B9901F0B8FD0120929901
:102E2000087144B992A8FEF771FD04461CB9929846
:102E300001F0C4FD044620460DF51D7DF0BD33B5FF
:102E4000ADF50D7D0D4600228DA984A800F032FB62
:102E5000044694B981A88A9001A88B9084A88D9982
:102E600000F054FD044644B9899828B12DB1294693
:102E700084A800F0AFFE00E0062420460DF50F7D8B
:102E800030BD2DE9F0410446204601F024FE0746FE
:102E9000002F4CD1A07900F02000002847D0A07965
:102EA00000F0400078B121684878012304F1240142
:102EB000A269FEF73DFE10B10120BDE8F081A079C6
:102EC00020F04000A071E169206801F09BFB0746FB
:102ED000002F2CD1256AE87A40F02000E872207B90
:102EE0002877A089010A6977E068010CA977E06872
:102EF000010EE9772846216901F048FD00F066FEE1
:102F00000646AE75310AE975310C2976310E6976BF
:102F10000020A8740021E974A07920F02000A0719D
:102F2000012021680871206801F048FD07463846F5
:102F3000C3E771B5ADF5157D0026012295A98CA8D2
:102F400000F0B8FA0446002C46D180A89290CDF843
:102F50004CD28CA8959900F0D9FC044600BF002CF7
:102F60003AD1919D0DB9062404E0E87A00F0010001
:102F700000B10724FCB929468C9800F0D8FE06461B
:102F8000CEB1E87A00F01000A8B124228CA983A861
:102F900001F097F98596022183A8FEF7ECFC044620
:102FA0004CB9002183A8FEF7B9FB044604B90724F5
:102FB000042C00D100247CB98CA8FEF7A7FC0446A1
:102FC0002CB926B131468C9801F05CFC04461CB942
:102FD0008C9801F0F3FC044620460DF5167D70BD7B
:102FE0002DE9FF4F83B0044615469B460498019097
:102FF0000020CBF80000204601F06DFD0290029801
:1030000018B1029807B0BDE8F08FE07908B1E07917
:10301000F8E7A07900F0020008B90720F2E7A068FD
:103020002844A168884200D20025CFE02168498960
:10303000A068B0FBF1F201FB120000287ED12168EC
:103040004989A068B0FBF1F021688978491E0840E1
:1030500000F0FF0ABAF1000F1ED1A06838B9276945
:1030600057B900212068FEF775F8074604E061694A
:103070002068FEF76FF8074607B9AAE0012F02D1D2
:103080000220E071BEE7781C10B90120E071B9E7B9
:103090006761206900B92761A07900F0400078B12C
:1030A00021684878012304F12401A269FEF740FD5C
:1030B00010B10120E071A5E7A07920F04000A071D7
:1030C00061692068FDF7E8FF064616B90220E07145
:1030D00098E7564420684089B5FBF0F9B9F1000F34
:1030E00031D00AEB090021688978884203D9206829
:1030F0008078A0EB0A09216848784B46324601994E
:10310000FEF716FD10B10120E0717BE7A069801B7E
:10311000484511D2A069831B2068B0F80AC0019805
:1031200003FB0C012068428904F1240001F0C9F876
:10313000A07920F04000A071206800E017E04089ED
:1031400000FB09F835E0A069B0420FD0D4E90201D4
:1031500088420BD2216848780123324604F12401C9
:10316000FEF7ABFC10B10120E0714BE7A6612168CE
:103170004989A068B0FBF1F201FB1200216849897E
:10318000A1EB0008A84500D9A84621684989A06894
:10319000B0FBF1F201FB120104F1240008444246A5
:1031A0000090019901F08DF8A07940F04000A071E5
:1031B00000BF019840440190A0684044A060DBF843
:1031C00000004044CBF80000A5EB0805002D7FF47B
:1031D0002DAF00BFD4E90201884201D9A068E060A8
:1031E000A07940F02000A07100200BE72DE9F0410C
:1031F00002460F46802A01DA10462FE01FB1184B15
:1032000045F2205602E0174B45F2205600251024C7
:1032100016E0A6EB050C0CEBDC7805EB68014FEA39
:10322000410C33F81CC0944500D10BE04FEA410C2F
:1032300033F81CC0944501DA0D4600E00E46641ECA
:10324000002CE6D100BF34B14FF0010C0CEB410C67
:1032500033F81CC001E04FF0000C6046BDE8F0817F
:10326000C69F0108424B000830B5802807DA612864
:1032700023DB7A2821DCA0F12005A8B21DE00C2276
:1032800000234FF4F77400BFE51A03EB55010B4D13
:1032900035F81150854200D10AE0084D35F811503B
:1032A000854201DA0B4600E00C46551E2A00EBD1A0
:1032B00000BF12B1024D35F8110030BD4AF40208CA
:1032C00026F802081CB5414941A0FFF7B8FD464960
:1032D000087008460078002874D144A0FDF7B0FCBF
:1032E0003A48016848A0FDF7ABFC3848C088C0F3F5
:1032F00045103649C988C912CDE900103348007914
:1033000000F01F0331488088C0F343122F488088A3
:1033100040F2BC7404EB602141A0FDF791FC2B4806
:10332000007A00F0200008B1412000E02D2027495C
:10333000097A01F0040109B1532100E02D21CDE902
:1033400000102248007A00F0020008B1482000E096
:103350002D2003461D48007A00F0010008B15220DC
:1033600000E02D2002461948007A00F0100008B154
:10337000442000E02D20014632A0FDF761FC1348F7
:10338000017A36A0FDF75CFC012211A13948FFF754
:1033900083F9154908700846007878B9364B4FF420
:1033A000806236493348FFF7ABFB0F490870084687
:1033B000007820B9314932A0FDF742FC02E038A084
:1033C000FDF73EFC084800781CBD000018270020CF
:1033D000313A546573744469722F74657374646907
:1033E000722E74787400000014000020A1B074657F
:1033F00073746469722E747874A1B1CEC4BCFED0AB
:10340000C5CFA2A3BA0A0000A1B7CEC4BCFEB4F3D4
:10341000D0A13A20256C6428D7D6BDDA290A00004D
:10342000A1B7CAB1BCE4B4C13A2025752F2530320A
:10343000752F253032752C20253032753A253032E3
:10344000750A0000A1B7CAF4D0D43A2025632563D9
:103450002563256325630A0A0000000066696C6520
:103460002064617461206F75747075743A202564EE
:103470000D0A00009010002018000020B420002049
:10348000A1B7B6C1C8A1B5C3B5C4CEC4BCFECAFD00
:10349000BEDDCEAAA3BA0D0A2573200D0A000000D6
:1034A0002121CEC4BCFEB6C1C8A1CAA7B0DCA1A36D
:1034B0000D0A00002DE9F74F8AB000210A9801603B
:1034C0000B9800F00FFC09900998002803DA0B20F4
:1034D0000DB0BDE8F08FE949099851F820400CB9CA
:1034E0000C20F5E70A980460207878B16078FEF740
:1034F00005FB814609F0010040B90C9820B109F0A4
:10350000040008B10A20E3E70020E1E70020207072
:10351000099860706078FEF792FA814609F0010020
:1035200008B10320D4E70C9820B109F0040008B1D9
:103530000A20CDE7607804F10A020221FEF79CFA26
:1035400038B96089B0F5007F03DB6089B0F5805F32
:1035500001DD0120BCE7002739462046FDF74AFD82
:103560000546012D01D09DBB32E000261AE004F58E
:10357000F77000EB061898F8040070B198F80B008B
:10358000010698F80A0041EA004198F8090041EA6A
:10359000002098F80810084300E0002002A941F834
:1035A0002600761C042EE2D3002606B1761E00BF4C
:1035B00002A850F8267027B139462046FDF71AFDBB
:1035C00000E0022005461DB1701C06460428EFD31A
:1035D000032D01D101207BE70DB10D2078E73B20C1
:1035E000015D94F83C0041EA00206189884201D0E5
:1035F0000D206DE74620015D94F8470041EA002A5E
:10360000BAF1000F0ED194F85700010694F8560055
:1036100041EA004194F8550041EA002094F8541022
:1036200040EA010AC4F818A04020005DE070E0788C
:10363000012804D0E078022801D00D2048E7E07886
:103640000AFB00FA3D20005DA070A07818B1A078B8
:10365000411E084008B10D203AE74120015D94F871
:10366000420041EA002020816089C11700EBD1614E
:103670004911228992FBF1F301FB132109B10D20BD
:1036800026E74320015D94F8440041EA00200890B9
:10369000089870B994F85300010694F8520041EA72
:1036A000004194F8510041EA002094F8501008437A
:1036B00008903E20015D94F83F0041EA002001900F
:1036C000019808B90D2003E76089C11700EBD161AB
:1036D0004911228992FBF1F2019951441144079159
:1036E000DDE90710884201D20D20F1E6DDE907107F
:1036F000401AA178B0FBF1FBBBF1000F01D10D2006
:10370000E6E6012540F6F670834500D302254FF624
:10371000F670834500D303250BF102006061E76179
:1037200001983844206207983844A062032D16D1CE
:10373000208908B10D20CBE694F85F00010694F8CB
:103740005E0041EA004194F85D0041EA002094F8EF
:103750005C100843606260698000069014E0208974
:1037600008B90D20B4E6206A50446062022D02D1EF
:103770006069400007E0207D00F00100616901EB15
:10378000410100EB510006906089401E06990844F3
:103790006189B0FBF1F0A169884201D90D2097E65B
:1037A0004FF0FF302061E06080206071032D5AD11E
:1037B00094F8601094F8610041EA0020012852D189
:1037C000791C204600F01EFFE8BB0020607194F8D1
:1037D0002E1294F82F0241EA00204AF65521884221
:1037E00041D13320005D01063220005D41EA0041F5
:1037F0003120005D41EA002094F830100843204950
:10380000884230D194F81702010694F8160241EA72
:10381000004194F8150241EA002094F8141208437C
:10382000184988421FD194F81B02010694F81A0225
:1038300041EA004194F8190241EA002094F8181274
:103840000843206100E00EE094F81F02010694F89E
:103850001E0241EA004194F81D0241EA002094F85A
:103860001C120843E060257007480088401C80B2A5
:1038700005490880E08000202AE600005000002072
:10388000525261417272416158000020F0B5044605
:103890001D464D730F27CF7200270F738F76BC46DE
:1038A00081F81BC0571E07EB870C0CEBC7060027DF
:1038B00038463B4600BF4FF6FF77B84203D0374645
:1038C000761C34F81700DFF840C01CF803C001F87C
:1038D0000C000712DFF830C01CF803C08C448CF8D1
:1038E000017008B94FF6FF705F1C3B460D2FE2D305
:1038F0004FF6FF77B84202D034F816700FB942F095
:1039000040020A70F0BD0000084B00082DE9F341A9
:103910000446019800782F2803D0019800785C288D
:1039200002D10198401C01900020A060019800780D
:10393000202807D200212046FEF71DF8054600206A
:10394000606128E000BF01A92046FDF76FFC054635
:1039500005B11FE02046FDF7CFFD0546A069C67AF8
:103960003DB1042D04D100BF06F0040000B90525C7
:1039700010E006F0040000B10CE06769F87A00F08E
:10398000100008B9052505E03946206800F0CFF998
:10399000A060D8E700BF2846BDE8FC8170B50446AA
:1039A0000D46E1B20548FDF745F900BF8021034807
:1039B000FDF7C6F80028F9D0204670BD0038014058
:1039C0002DE9FF4F83B0074691461E460B2238462D
:1039D000049900F076FC052E19D9B04612E039F8AA
:1039E00002BB00250CE0584668F35F0080464FEAB2
:1039F0006B0B08F4803010B1234888EA00086D1C76
:103A0000102DF0D3B9F800000028E8D1464607256C
:103A100000BF06F00F0000F1300ABAF1390F03DDE4
:103A20000AF1070000F0FF0A28466D1E01A901F8FF
:103A300000A03609002EECD17E20485500240BE072
:103A4000385D812807DB385DFE2804DC681EA04253
:103A500000D106E0641C641CAC4202D2385D202810
:103A6000EED100BF00BF082D04D228466D1C01A96D
:103A7000095C00E020212046641C3954082CF2D354
:103A800007B0BDE8F08F0000211001002DE9F05FC4
:103A900004460D46022D02D36069A84202D84FF0B9
:103AA00001098FE04FF0FF392078012804D0022867
:103AB0003CD003287ED157E02F4607EB570760899B
:103AC000B7FBF0F0216A00EB010A5146204600F0F6
:103AD00099FD00B175E038467F1C6189B0FBF1F2B9
:103AE00001FB120104F1300010F801806089B7FB7E
:103AF000F0F0216A00EB010A5146204600F082FDF9
:103B000000B15EE06089B7FBF0F100FB117104F1D8
:103B10003000405C48EA002805F0010010B14FEA8F
:103B2000181001E0C8F30B0081464AE0B4F80AA07F
:103B30000AEBDA704010B5FBF0F0216A00EB010BE4
:103B40005946204600F05EFD00B13AE06800618908
:103B5000B0FBF1F201FB120104F130000E183078D5
:103B6000717840EA01292CE0B4F80AA04FEAEA7023
:103B70000AEB90708010B5FBF0F0216A00EB010BAE
:103B80005946204600F03EFD00B11AE0A8006189C8
:103B9000B0FBF1F201FB120104F130000E18F078D5
:103BA0000006B17840EA0140717840EA012031789E
:103BB000084300E002E020F0704902E04FF0010904
:103BC00000BF00BF4846BDE8F09F000000487047B6
:103BD000000021462DE9F05F80460D4605F10907FA
:103BE000D8F81000002843D0D8F81440002626E06A
:103BF0003046761C14F80090B9F1200F00D11EE079
:103C0000B9F1050F01D14FF0E509092E02D12E209F
:103C100007F8010BB9F1410F0EDBB9F15A0F0BDCBC
:103C2000207B092E01D3102100E00821084018B1A3
:103C300009F1200000F0FF0907F8019B00BF0B2EDF
:103C4000D6D3E07A2872E07F0106A07F41EA0041E6
:103C5000607F41EA0020217F08432860217E607E4A
:103C600041EA0020A880A17DE07D41EA0020E880B3
:103C700000203870A86998B30026AF69D8F8100002
:103C800060B3E86950B3B8F820004FF6FF7188427E
:103C900024D0D8F81CB01BE000215046FFF7A6FA4C
:103CA0008246BAF1000F01D1002616E0BAF1FF0FEB
:103CB00004DD4FEA2A223046761C3A54E869401E59
:103CC000B04201D8002608E03046761C07F800A074
:103CD0003BF8021B5FEA010ADED100BF0020B855A5
:103CE000BDE8F09F70B502464FF0FF301568E5B1B2
:103CF000116800E0491C0D78202D02D30D783A2D73
:103D0000F8D10D783A2D0FD1146814F8015BA5F1A4
:103D100030030A2B07D28C4205D1022B03D218465E
:103D20004D1C2946156070BD002000BFFBE710B593
:103D300002468C7ECB7E44EA03201378032B05D108
:103D40000C7D4B7D44EA032340EA034010BD000094
:103D5000FCF7B6FEFCF7EAFA20217E48FCF7CCFA25
:103D600001217C48FCF7C8FA02217A48FCF7C2FA24
:103D700079A0FCF765FF012281A18248FEF75EFC75
:103D800081490870084600780D282FD17FA0FCF7E4
:103D900057FF002211467AA0FEF70EF97A49087003
:103DA0000846007888B984A0FCF74AFF012274A174
:103DB0000020FEF743FC74490870012270A171488D
:103DC000FEF73CFC7049087020E020216148FCF7B8
:103DD00091FA01215F48FCF78FFA02215D48FCF758
:103DE0008BFA7DA0FCF72CFF00BFFEE76648007849
:103DF00048B16548017880A0FCF722FF88A0FCF755
:103E00001FFF00BFFEE790A0FCF71AFF98A0FCF789
:103E100017FF0A22A1A1A848FEF73EFC5A490870E4
:103E200008460078002820D1A4A0FCF709FFB34B76
:103E30003022B349A048FFF7D3F853490870084629
:103E4000007848B9AD480168AEA0FCF7F9FEAC496E
:103E5000B5A0FCF7F5FE04E04B480178BAA0FCF7EA
:103E6000EFFE9548FDF78CFE0EE020213948FCF767
:103E700041FA01213748FCF73FFA02213548FCF7A7
:103E80003BFAB7A0FCF7DCFEBBA0FCF7D9FE012291
:103E900082A18948FEF700FC3B490870084600787B
:103EA000002828D120212B48FCF726FA0121294897
:103EB000FCF720FA02212748FCF71EFAB9A0FCF70C
:103EC000BFFE8E4B4FF48062BB497B48FEF718FE65
:103ED0002D4908700846007848B988480168B7A09D
:103EE000FCF7AEFEB449BFA0FCF7AAFE12E0C5A0E5
:103EF000FCF7A6FE0EE020211648FCF7FBF9012195
:103F00001448FCF7F9F902211248FCF7F5F9C2A0B0
:103F1000FCF796FE6848FDF733FE00F0E9F91A4910
:103F20000870C3A0FCF78CFEFFF7CCF916490870A7
:103F3000CCA0FCF785FE12A1D748FCF71CF9D648A7
:103F400000F0D6FC01220EA10020FEF777FB00BF97
:103F5000FEE70000000C01400D200A20D5E2CAC790
:103F6000D2BBB8F62053504920464C41534820CE8E
:103F7000C4BCFECFB5CDB3CAB5D1E9200D200A002F
:103F8000313A00006000002014000020A1B7464C28
:103F9000415348BBB9C3BBD3D0CEC4BCFECFB5CD13
:103FA000B3A3ACBCB4BDABBDF8D0D0B8F1CABDBBF7
:103FB000AF2E2E2E0D0A0000A1B7464C415348D219
:103FC000D1B3C9B9A6B8F1CABDBBAFCEC4BCFECF90
:103FD000B5CDB3A1A30D0A003C3C2E2E2E2E2E2EC5
:103FE0002EB8F1CABDBBAFCAA7B0DC2E2E2E2E2E26
:103FF0002E3E3E0D0A0000002121CDE2B2BF466CEC
:1040000061736820B9D2D4D8CEC4BCFECFB5CDB3CD
:10401000CAA7B0DCA1A3282564290D0A000000006E
:104020002121BFC9C4DCD4ADD2F2A3BA5350492078
:10403000466C61736820B3F5CABCBBAFB2BBB3C9F1
:10404000B9A6A1A30D0A0000A1B7CEC4BCFECFB58E
:10405000CDB3B9D2D4D8B3C9B9A6A3ACBFC9D2D451
:10406000BDF8D0D0B6C1D0B4B2E2CAD40D0A0000B7
:104070000D0A2A2A2A2A2A2A20BCB4BDABBDF8D0B0
:10408000D0CEC4BCFED0B4C8EBB2E2CAD42E2E2E21
:10409000202A2A2A2A2A2A0D0A000000313A4661DB
:1040A00074467320B6C1D0B4CEC4BCFEB2E2CAD44A
:1040B0002E7478740000000090100020A1B7A1B702
:1040C000B4F2BFAA2FB4B4BDA84661744673B6C19A
:1040D000D0B4B2E2CAD4CEC4BCFE2E74787420CE62
:1040E000C4BCFEB3C9B9A6A3AC20CFF2CEC4BCFEFB
:1040F000D0B4C8EBCAFDBEDD0D0A000018000020D8
:104100001C000020A1B7CEC4BCFED0B4C8EBB3C91C
:10411000B9A6A3ACD0B4C8EBD7D6BDDACAFDBEDD14
:10412000A3BA25640A000000A1B7CFF2CEC4BCFE3A
:10413000D0B4C8EBB5C4CAFDBEDDCEAAA3BA0D0A81
:1041400025730D0A00000000A3A1A3A1CEC4BCFEEC
:10415000D0B4C8EBCAA7B0DCA3BA282564290A00EA
:104160002121B4F2BFAA2FB4B4BDA8CEC4BCFECAEC
:10417000A7B0DC0D0A0000002A2A2A2A2A2A2A20AF
:10418000BCB4BDABBDF8D0D0CEC4BCFEB6C1C8A1D6
:10419000B2E2CAD42A2A2A2A2A2A2A2A2A2A0D0A32
:1041A00000000000A1B720B4F2BFAACEC4BCFEB389
:1041B000C9B9A6A1A30D0A00B4200020A1B7CEC49E
:1041C000BCFEB6C1C8A1B3C9B9A6A3AC20B6C1C8CC
:1041D000A1B5BDD7D6BDDACAFDBEDDA3BA25642020
:1041E0000D0A0000A1B7B6C1C8A1B5C3B5C4CEC4FD
:1041F000BCFECAFDBEDDCEAAA3BA0D0A2573200DF2
:104200000A0000002121CEC4BCFEB6C1C8A1CAA7C5
:10421000B0DCA1A30D0A0000A3A1A3A1CEC4BCFEE3
:10422000B6C1C8A1CAA7B0DCA1A3200D0A00000036
:104230000A2A2A2A2A2A2A2A2A2A2A2A2A2A2A2AFE
:1042400020CEC4BCFED0C5CFA2BBF1C8A1B2E2CA89
:10425000D4202A2A2A2A2A2A2A2A2A2A2A2A2A2A1E
:104260000D0A00002A2A2A2A2A2A2A2A2A2A2A2A3F
:104270002A2A2A2A2A20CEC4BCFEC9A8C3E8B2E250
:10428000CAD4202A2A2A2A2A2A2A2A2A2A2A2A2A4E
:104290002A2A2A0D0A000000B4240020F0B50346A3
:1042A0001C460D46002000BF1600A2F1010207D0F7
:1042B00014F8017B15F801CBA7EB0C063000F3D006
:1042C000F0BD70B503460C4603E014F8015B03F83B
:1042D000015B1500A2F10102F7D170BD30B50346B4
:1042E00001E003F8011B1400A2F10102F9D130BD75
:1042F00030B58BB046A0FCF7A3FC01AA69464EA0DE
:10430000FDF759FC4D49087001984069801E0199DC
:10431000897800FB01F501988078009900FB01F491
:10432000A200A90046A0FCF78BFC52A0FCF788FC79
:1043300013225DA16248FEF7AFF9404908700846B4
:104340000078002857D15E48C168FDF7B5FC3B49AD
:10435000087008460078002822D15AA15848FEF774
:1043600095FAA300AA005EA15548FEF78FFA002136
:104370005348FDF7A1FC314908705148644B654929
:10438000C268FEF7BDFB2D4908700846007820B9C9
:10439000604961A0FCF754FC02E064A0FCF750FC0B
:1043A0004748FDF7EDFB67A0FCF74AFC72A102A8A5
:1043B000FEF731FA214908700846007828B16EA04E
:1043C000FDF747FD1D49087007E002A8FDF7E8FB6F
:1043D0001A4908706BA0FEF7ACFD18480078002859
:1043E00011D168A130A0FEF7A5FC144908706BA09C
:1043F000FCF726FC07E01148017870A0FCF720FCD0
:1044000074A0FCF71DFC0D4800780BB030BD000017
:104410000A2A2A2A2A2A2A2A2A2A2AC9E8B1B8D004
:10442000C5CFA2BBF1C8A12A2A2A2A2A2A2A2A2AC7
:104430002A2A2A2A2A0D0A00313A000014000020F4
:10444000A1B7C9E8B1B8D7DCBFD5BCE4A3BA253160
:10445000306C75204B42A1A30AA1B7BFC9D3C3BF1B
:10446000D5BCE4A3BA20202531306C75204B42A185
:10447000A30A00000A2A2A2A2A2A2A2A2A20CEC483
:10448000BCFEB6A8CEBBBACDB8F1CABDBBAFD0B4E6
:10449000C8EBB9A6C4DCB2E2CAD4202A2A2A2A2A46
:1044A0002A2A2A0D0A000000313A4661744673B682
:1044B000C1D0B4B2E2CAD4CEC4BCFE2E74787400AB
:1044C000901000200AD4DAD4ADC0B4CEC4BCFED063
:1044D000C2CCEDBCD3D2BBD0D0C4DAC8DD0A000058
:1044E000C9E8B1B8D7DCBFD5BCE4A3BA2531306C7C
:1044F00075204B42A1A30A20BFC9D3C3BFD5BCE4DA
:10450000A3BA20202531306C75204B42A1A30A00AC
:104510001800002018250020A1B7CEC4BCFEC4DAC4
:10452000C8DDA3BA0A25730A000000002121B6C124
:10453000C8A1CEC4BCFEC4DAC8DDCAA7B0DC200D59
:104540000A0000000A2A2A2A2A2A2A2A2A2A2A2093
:10455000C4BFC2BCB4B4BDA8BACDD6D8C3FCC3FBDB
:10456000B9A6C4DCB2E2CAD4202A2A2A2A2A2A2AD4
:104570002A2A2A0D0A000000313A546573744469EE
:1045800072000000313A546573744469722F746587
:1045900073746469722E74787400000020202020E7
:1045A0002020D6D8C3FCC3FBB2A2D2C6B6AFCEC4BD
:1045B000BCFEB3C9B9A6A3A10D0A0000212120B4F5
:1045C000F2BFAACEC4BCFECAA7B0DCA3BA25640A57
:1045D00000000000212120BBF2D0EDD0E8D2AAD407
:1045E000D9B4CED4CBD0D0A1B04661744673D2C674
:1045F000D6B2D3EBB6C1D0B4B2E2CAD4A1B1B9A499
:10460000B3CC0A0070B504460D460026E06AA84205
:1046100010D0204600F036FA06465EB960780123D5
:104620002A4604F13001FDF748FA10B14FF0FF358A
:104630000126E562304670BDF0B504468F7EC87E27
:1046400047EA002008B10020F0BD087800F03F00E4
:10465000401E00EB800707EBC002012600231AE092
:104660001448C05C085C134FFF5C0F447F7840EA3D
:1046700007254EB1FF2A01D30020E5E72E4610465C
:10468000521C24F8105005E04FF6FF70854201D00F
:104690000020D9E75B1C0D2BE2D3087800F0400026
:1046A00030B1FF2A01D30020CEE7002024F8120009
:1046B0000120C9E7084B00082DE9F05F04460E46CB
:1046C0001746022E02D36069B04202D84FF00208AA
:1046D000B3E02078012804D0022852D0032872D1F8
:1046E00072E0B14609EB59096089B9FBF0F0216A23
:1046F00000EB010A51462046FFF784FF8046B8F1DF
:10470000000F00D098E0484609F101096189B0FB2B
:10471000F1F201FB120104F130000D1806F0010066
:1047200020B1F9B2287861F31F1000E038462870F4
:10473000012020716089B9FBF0F0216A00EB010AC9
:1047400051462046FFF75EFF8046B8F1000F00D0CB
:1047500072E06089B9FBF0F100FB119104F13000C7
:104760000D1806F0010010B1C7F3071005E0287816
:1047700000F0F000C7F303210843287001202071E6
:104780005AE0B4F80AA00AEBDA704010B6FBF0F079
:10479000216A00EB010B59462046FFF733FF8046A4
:1047A000B8F1000F00D047E070006189B0FBF1F272
:1047B00001FB120104F130000D182F70380A6870E7
:1047C0000120207138E034E0B4F80AA04FEAEA7022
:1047D0000AEB90708010B6FBF0F0216A00EB010B41
:1047E00059462046FFF70EFF8046B8F1000F00D073
:1047F00022E0B0006189B0FBF1F201FB120104F18B
:1048000030000D18E8780006A97840EA0140697880
:1048100040EA01202978084300F0704007432F70D8
:10482000380A6870380CA870380EE87001202071C2
:1048300002E04FF0020800BF00BF4046BDE8F09F15
:10484000F8B504460E4600BF6568002D00DAF8BDD5
:1048500028466D1C04F10C010E543D2D0CDB6B46FB
:104860002A462068FEF7BCFB0098A84201D1002030
:1048700001E04FF0FF3005466560A068401CA06075
:1048800000BFE4E72DE9F04104460E46022E02D3B4
:104890006069B04201D8022727E0002721E03146B5
:1048A0002046FFF7F3F8054605B91DE0012D01D1BB
:1048B000022719E0681C08B9012715E000223146DB
:1048C0002046FFF7F9FE074607B10DE02069401CBE
:1048D00030B12069401C2061607940F001006071B6
:1048E0002E466069B042DAD800BF3846BDE8F08194
:1048F000F0B591B0044621480F9040F2FF1010909F
:1049000021466846FDF787FF0546002D33D1204636
:10491000FBF72AFC064600BF09A96846FEF7D8F94E
:10492000054615B99DF82D0000B923E00F980078D1
:1049300008B10F9801E00DF12D00074638782E28B8
:1049400000D1E9E79DF82C0000F0100060B1A0193B
:104950003A460BA1FCF784F92046FFF7C9FF05464C
:104960000020A0552DB105E03A46214605A0FCF7F0
:1049700067F9D1E700BF284611B0F0BD3827002005
:104980002F25730025732F25730D0A0081760B0ADE
:10499000C3760A0C02750B0E4375704730B501469D
:1049A00000200B2200BF431003EBC01411F8015B81
:1049B0006319D8B2531E1A00F5D130BD70B5044644
:1049C000204600F05FF80546002D59D120780328D5
:1049D0004FD1607901284CD16289002104F1300067
:1049E000FFF77CFC552184F82E12AA2184F82F129F
:1049F000522084F8300052213120015561213220AB
:104A00000155412133200155722184F8141284F894
:104A10001512412184F81612612184F81712217CA5
:104A200084F81812208A010A84F819122069010CEE
:104A300084F81A122069010E84F81B12217B84F875
:104A40001C12A089010A84F81D12E068010C84F888
:104A50001E12E068010E84F81F12E069401CE0623B
:104A60006078012304F13001E26AFDF761F800206B
:104A70006071607800221146FCF7FEFF00B101254D
:104A8000284670BD2DE9F041044600272079F8B191
:104A9000E56A607801232A4604F13001FDF748F801
:104AA00008B1012714E000202071206A281AA169AA
:104AB00088420DD2E67809E0A069054460780123B8
:104AC0002A4604F13001FDF733F8761E022EF3D2A8
:104AD0003846BDE8F08170B505462C4684B12068A3
:104AE00070B12068007858B12068C088A1888842D9
:104AF00006D121684878FDF701F800F0010008B1FF
:104B0000092070BD0020FCE701030507090E101203
:104B10001416181C1E000004000200018000400052
:104B20002000100008000400020000000080004087
:104B300000200010000800400020001000080004C1
:104B40000002A400E8A1A700ECA1A800A7A1B00062
:104B5000E3A1B100C0A1B700A4A1D700C1A1E000AA
:104B6000A4A8E100A2A8E800A8A8E900A6A8EA0075
:104B7000BAA8EC00ACA8ED00AAA8F200B0A8F30017
:104B8000AEA8F700C2A1F900B4A8FA00B2A8FC00D0
:104B9000B9A80101A1A81301A5A81B01A7A82B0171
:104BA000A9A84401BDA84801BEA84D01ADA86B014C
:104BB000B1A8CE01A3A8D001ABA8D201AFA8D4015F
:104BC000B3A8D601B5A8D801B6A8DA01B7A8DC0108
:104BD000B8A85102BBA86102C0A8C702A6A1C90219
:104BE000A5A1CA0240A8CB0241A8D90242A89103BC
:104BF000A1A69203A2A69303A3A69403A4A6950339
:104C0000A5A69603A6A69703A7A69803A8A6990308
:104C1000A9A69A03AAA69B03ABA69C03ACA69D03D8
:104C2000ADA69E03AEA69F03AFA6A003B0A6A103A8
:104C3000B1A6A303B2A6A403B3A6A503B4A6A60374
:104C4000B5A6A703B6A6A803B7A6A903B8A6B1033D
:104C5000C1A6B203C2A6B303C3A6B403C4A6B503D8
:104C6000C5A6B603C6A6B703C7A6B803C8A6B903A8
:104C7000C9A6BA03CAA6BB03CBA6BC03CCA6BD0378
:104C8000CDA6BE03CEA6BF03CFA6C003D0A6C10348
:104C9000D1A6C303D2A6C403D3A6C503D4A6C60314
:104CA000D5A6C703D6A6C803D7A6C903D8A60104AC
:104CB000A7A71004A1A71104A2A71204A3A7130475
:104CC000A4A71404A5A71504A6A71604A8A717044B
:104CD000A9A71804AAA71904ABA71A04ACA71B0418
:104CE000ADA71C04AEA71D04AFA71E04B0A71F04E8
:104CF000B1A72004B2A72104B3A72204B4A72304B8
:104D0000B5A72404B6A72504B7A72604B8A7270487
:104D1000B9A72804BAA72904BBA72A04BCA72B0457
:104D2000BDA72C04BEA72D04BFA72E04C0A72F0427
:104D3000C1A73004D1A73104D2A73204D3A73304CA
:104D4000D4A73404D5A73504D6A73604D8A737048A
:104D5000D9A73804DAA73904DBA73A04DCA73B0457
:104D6000DDA73C04DEA73D04DFA73E04E0A73F0427
:104D7000E1A74004E2A74104E3A74204E4A74304F7
:104D8000E5A74404E6A74504E7A74604E8A74704C7
:104D9000E9A74804EAA74904EBA74A04ECA74B0497
:104DA000EDA74C04EEA74D04EFA74E04F0A74F0467
:104DB000F1A75104D7A710205CA9132043A8142001
:104DC000AAA1152044A81620ACA11820AEA1192034
:104DD000AFA11C20B0A11D20B1A1252045A82620EF
:104DE000ADA13020EBA13220E4A13320E5A1352094
:104DF00046A83B20F9A1AC2080000321E6A10521B3
:104E000047A8092148A81621EDA1212159A960210F
:104E1000F1A26121F2A26221F3A26321F4A2642132
:104E2000F5A26521F6A26621F7A26721F8A2682102
:104E3000F9A26921FAA26A21FBA26B21FCA27021CE
:104E4000A1A27121A2A27221A3A27321A4A2742102
:104E5000A5A27521A6A27621A7A27721A8A27821D2
:104E6000A9A27921AAA29021FBA19121FCA19221C2
:104E7000FAA19321FDA1962149A897214AA898213A
:104E80004BA899214CA80822CAA10F22C7A1112220
:104E9000C6A115224DA81A22CCA11D22D8A11E22DE
:104EA000DEA11F224EA82022CFA123224FA8252217
:104EB000CEA12722C4A12822C5A12922C9A12A2224
:104EC000C8A12B22D2A12E22D3A13422E0A13522C7
:104ED000DFA13622C3A13722CBA13D22D7A1482290
:104EE000D6A14C22D5A1522250A86022D9A161227C
:104EF000D4A16422DCA16522DDA1662251A867222B
:104F000052A86E22DAA16F22DBA1952292A89922E3
:104F1000D1A1A522CDA1BF2253A81223D0A16024E4
:104F2000D9A26124DAA26224DBA26324DCA2642475
:104F3000DDA26524DEA26624DFA26724E0A2682445
:104F4000E1A26924E2A27424C5A27524C6A2762433
:104F5000C7A27724C8A27824C9A27924CAA27A2435
:104F6000CBA27B24CCA27C24CDA27D24CEA27E2405
:104F7000CFA27F24D0A28024D1A28124D2A28224D5
:104F8000D3A28324D4A28424D5A28524D6A28624A5
:104F9000D7A28724D8A28824B1A28924B2A28A24C5
:104FA000B3A28B24B4A28C24B5A28D24B6A28E24E5
:104FB000B7A28F24B8A29024B9A29124BAA29224B5
:104FC000BBA29324BCA29424BDA29524BEA2962485
:104FD000BFA29724C0A29824C1A29924C2A29A2455
:104FE000C3A29B24C4A20025A4A90125A5A902252A
:104FF000A6A90325A7A90425A8A90525A9A90625C9
:10500000AAA90725ABA90825ACA90925ADA90A2598
:10501000AEA90B25AFA90C25B0A90D25B1A90E2568
:10502000B2A90F25B3A91025B4A91125B5A9122538
:10503000B6A91325B7A91425B8A91525B9A9162508
:10504000BAA91725BBA91825BCA91925BDA91A25D8
:10505000BEA91B25BFA91C25C0A91D25C1A91E25A8
:10506000C2A91F25C3A92025C4A92125C5A9222578
:10507000C6A92325C7A92425C8A92525C9A9262548
:10508000CAA92725CBA92825CCA92925CDA92A2518
:10509000CEA92B25CFA92C25D0A92D25D1A92E25E8
:1050A000D2A92F25D3A93025D4A93125D5A93225B8
:1050B000D6A93325D7A93425D8A93525D9A9362588
:1050C000DAA93725DBA93825DCA93925DDA93A2558
:1050D000DEA93B25DFA93C25E0A93D25E1A93E2528
:1050E000E2A93F25E3A94025E4A94125E5A94225F8
:1050F000E6A94325E7A94425E8A94525E9A94625C8
:10510000EAA94725EBA94825ECA94925EDA94A2597
:10511000EEA94B25EFA9502554A8512555A8522595
:1051200056A8532557A8542558A8552559A856259B
:105130005AA857255BA858255CA859255DA85A256B
:105140005EA85B255FA85C2560A85D2561A85E253B
:1051500062A85F2563A8602564A8612565A862250B
:1051600066A8632567A8642568A8652569A86625DB
:105170006AA867256BA868256CA869256DA86A25AB
:105180006EA86B256FA86C2570A86D2571A86E257B
:1051900072A86F2573A8702574A8712575A872254B
:1051A00076A8732577A8812578A8822579A88325F4
:1051B0007AA884257BA885257CA886257DA88725B7
:1051C0007EA8882580A8892581A88A2582A88B2584
:1051D00083A88C2584A88D2585A88E2586A88F2553
:1051E00087A8932588A8942589A895258AA8A0250D
:1051F000F6A1A125F5A1B225F8A1B325F7A1BC25FB
:105200008BA8BD258CA8C625F4A1C725F3A1CB2565
:10521000F0A1CE25F2A1CF25F1A1E2258DA8E325AD
:105220008EA8E4258FA8E52590A80526EFA10626DF
:10523000EEA1092691A84026E2A14226E1A1003074
:10524000A1A10130A2A10230A3A10330A8A1053081
:10525000A9A1063065A9073096A90830B4A1093084
:10526000B5A10A30B6A10B30B7A10C30B8A10D30F2
:10527000B9A10E30BAA10F30BBA11030BEA11130C0
:10528000BFA1123093A81330FEA11430B2A1153083
:10529000B3A11630BCA11730BDA11D3094A81E309B
:1052A00095A8213040A9223041A9233042A92430B9
:1052B00043A9253044A9263045A9273046A92830DE
:1052C00047A9293048A94130A1A44230A2A44330C3
:1052D000A3A44430A4A44530A5A44630A6A44730D6
:1052E000A7A44830A8A44930A9A44A30AAA44B30A6
:1052F000ABA44C30ACA44D30ADA44E30AEA44F3076
:10530000AFA45030B0A45130B1A45230B2A4533045
:10531000B3A45430B4A45530B5A45630B6A4573015
:10532000B7A45830B8A45930B9A45A30BAA45B30E5
:10533000BBA45C30BCA45D30BDA45E30BEA45F30B5
:10534000BFA46030C0A46130C1A46230C2A4633085
:10535000C3A46430C4A46530C5A46630C6A4673055
:10536000C7A46830C8A46930C9A46A30CAA46B3025
:10537000CBA46C30CCA46D30CDA46E30CEA46F30F5
:10538000CFA47030D0A47130D1A47230D2A47330C5
:10539000D3A47430D4A47530D5A47630D6A4773095
:1053A000D7A47830D8A47930D9A47A30DAA47B3065
:1053B000DBA47C30DCA47D30DDA47E30DEA47F3035
:1053C000DFA48030E0A48130E1A48230E2A4833005
:1053D000E3A48430E4A48530E5A48630E6A48730D5
:1053E000E7A48830E8A48930E9A48A30EAA48B30A5
:1053F000EBA48C30ECA48D30EDA48E30EEA48F3075
:10540000EFA49030F0A49130F1A49230F2A4933044
:10541000F3A49B3061A99C3062A99D3066A99E309F
:1054200067A9A130A1A5A230A2A5A330A3A5A4304D
:10543000A4A5A530A5A5A630A6A5A730A7A5A830E8
:10544000A8A5A930A9A5AA30AAA5AB30ABA5AC30B8
:10545000ACA5AD30ADA5AE30AEA5AF30AFA5B03088
:10546000B0A5B130B1A5B230B2A5B330B3A5B43058
:10547000B4A5B530B5A5B630B6A5B730B7A5B83028
:10548000B8A5B930B9A5BA30BAA5BB30BBA5BC30F8
:10549000BCA5BD30BDA5BE30BEA5BF30BFA5C030C8
:1054A000C0A5C130C1A5C230C2A5C330C3A5C43098
:1054B000C4A5C530C5A5C630C6A5C730C7A5C83068
:1054C000C8A5C930C9A5CA30CAA5CB30CBA5CC3038
:1054D000CCA5CD30CDA5CE30CEA5CF30CFA5D03008
:1054E000D0A5D130D1A5D230D2A5D330D3A5D430D8
:1054F000D4A5D530D5A5D630D6A5D730D7A5D830A8
:10550000D8A5D930D9A5DA30DAA5DB30DBA5DC3077
:10551000DCA5DD30DDA5DE30DEA5DF30DFA5E03047
:10552000E0A5E130E1A5E230E2A5E330E3A5E43017
:10553000E4A5E530E5A5E630E6A5E730E7A5E830E7
:10554000E8A5E930E9A5EA30EAA5EB30EBA5EC30B7
:10555000ECA5ED30EDA5EE30EEA5EF30EFA5F03087
:10556000F0A5F130F1A5F230F2A5F330F3A5F43057
:10557000F4A5F530F5A5F630F6A5FC3060A9FD30B0
:1055800063A9FE3064A90531C5A80631C6A8073154
:10559000C7A80831C8A80931C9A80A31CAA80B315F
:1055A000CBA80C31CCA80D31CDA80E31CEA80F312F
:1055B000CFA81031D0A81131D1A81231D2A81331FF
:1055C000D3A81431D4A81531D5A81631D6A81731CF
:1055D000D7A81831D8A81931D9A81A31DAA81B319F
:1055E000DBA81C31DCA81D31DDA81E31DEA81F316F
:1055F000DFA82031E0A82131E1A82231E2A823313F
:10560000E3A82431E4A82531E5A82631E6A827310E
:10561000E7A82831E8A82931E9A82032E5A22132FB
:10562000E6A22232E7A22332E8A22432E9A22532FE
:10563000EAA22632EBA22732ECA22832EDA22932CE
:10564000EEA231325AA9A33249A98E334AA98F3327
:105650004BA99C334CA99D334DA99E334EA9A13330
:105660004FA9C43350A9CE3351A9D13352A9D23353
:1056700053A9D53354A9004EBBD2014EA1B6024E58
:105680004081034EDFC6044E4181054E4281064EE5
:105690004381074EF2CD084EC9D5094EFDC80A4ECA
:1056A000CFC90B4EC2CF0C4EA2D80D4EBBB20E4E80
:1056B000EBD30F4E4481104EA4D8114EF3B3124ECB
:1056C0004581134EA8D7144ED2C7154EA7D8164EF3
:1056D000C0CA174E4681184EF0C7194EFBB11A4E7C
:1056E000B5D21B4ED4B41C4EABB61D4EBFCB1E4E16
:1056F000A9D81F4E4781204E4881214E4981224E14
:10570000AAB6234E4A81244EBDC1254ECFD1264E86
:105710004B81274EA5C9284EADD8294E4C812A4E23
:10572000F6B82B4EBED12C4EDCE32D4ED0D62E4EED
:105730004D812F4E4E81304EE1B7314E4F81324E6A
:10574000AEB4334E5081344ED9C1354E5181364EB0
:10575000BCD8374E5281384EE8CD394EA4B53A4EBA
:10576000AACE3B4EF7D63C4E53813D4EF6C03E4E40
:10577000D9BE3F4EAFD8404E5481414E5581424E26
:105780005681434ECBC4444E5781454EC3BE464E10
:105790005881474EB1D8484EB4C3494EE5D24A4E1F
:1057A00059814B4EAED64C4EDACE4D4EA7D54E4E0D
:1057B000F5BA4F4EA6B7504ED6C0514E5A81524EF2
:1057C000B9C6534ED2C5544EC7C7554E5B81564ECF
:1057D000D4B9574E5C81584ECBB3594ED2D25A4EA3
:1057E0005D815B4E5E815C4EBFD85D4EC5BE5E4E38
:1057F000F2C65F4EB2D2604EB0CF614EE7CF624E7E
:105800005F81634E6081644E6181654E6281664E48
:10581000E9CA674E6381684E6481694EC0D86A4E9A
:1058200065816B4E66816C4E67816D4E68816E4EF0
:1058300069816F4E6A81704EF2C2714ED2C2724E51
:105840006B81734EE9C8744E6C81754E6D81764ED6
:105850006E81774E6F81784E7081794E71817A4E6C
:1058600072817B4E73817C4E74817D4E75817E4E3C
:10587000ACC77F4E7681804E7781814E7881824E93
:105880007981834E7A81844E7B81854E7C81864EE0
:10589000CBC1874E7D81884EE8D3894EF9D58A4E9B
:1058A0007E818B4EC2CA8C4EFEB68D4EA1D88E4ED6
:1058B000DAD38F4EF7BF904E8081914EC6D4924E70
:1058C000A5BB934EC1D8944EE5CE954EAEBE964E36
:1058D0008181974E8281984EA8D8994E83819A4EA5
:1058E000C7D19B4EA9D09C4E84819D4E85819E4EF2
:1058F00086819F4EBDD8A04EEFD9A14EF6CDA24EC7
:10590000BABFA34E8781A44EBBBDA54EA5BAA64E75
:10591000E0D2A74EFAB2A84EE0BAA94EB6C4AA4E3B
:105920008881AB4EEDCFAC4EA9BEAD4EA4CDAE4EF0
:10593000C1C1AF4E8981B04E8A81B14E8B81B24ECA
:10594000D7C7B34EF1D9B44E8C81B54EF4D9B64E0B
:105950008D81B74E8E81B84E8F81B94E9081BA4EEF
:10596000CBC8BB4EE9D8BC4E9181BD4E9281BE4E94
:105970009381BF4EDAD2C04EB2CAC14ECAC8C24E1F
:10598000ECD8C34EEAD8C44EC6D8C54EF6BDC64EF6
:10599000CDC6C74EF0B3C84E9481C94EEBD8CA4E9F
:1059A000F1BDCB4EE9BDCC4E9581CD4ED4C8CE4E87
:1059B000D3B4CF4E9681D04E9781D14ED8C2D24E1D
:1059C0009881D34ED6B2D44ED0D7D54ECBCAD64E70
:1059D000FBCBD74ECCD5D84EB6B8D94EC9CFDA4EC0
:1059E0009981DB4E9A81DC4E9B81DD4EDAD9DE4E09
:1059F000F0D8DF4EAAC7E04E9C81E14EEED8E24ED1
:105A00009D81E34EFAB4E44EEEC1E54ED4D2E64EAB
:105A10009E81E74E9F81E84EEDD8E94EA081EA4E87
:105A2000C7D2EB4EEFD8EC4EC7C3ED4EA181EE4E80
:105A3000A281EF4EA381F04EF6D1F14EA481F24E39
:105A4000D9D6F34EF2D8F44EA581F54EF5D8F64EE0
:105A5000FEBCF74EDBBCF84EA681F94EA781FA4E8C
:105A6000A881FB4ECEC8FC4EA981FD4EDDB7FE4E8F
:105A7000AA81FF4EC2B7004FAB81014FF3C6024F60
:105A8000AC81034FAD81044FAE81054FAF81064F0E
:105A9000B081074FB181084FB281094FF8D80A4F42
:105AA000C1D20B4FB3810C4FB4810D4FE9CE0E4FD5
:105AB000BFBC0F4FFCB7104FA5B7114FDDD0124F31
:105AC000B581134FB681144FB781154FB881164F6A
:105AD000B981174FDAD6184FC5D3194FEFBB1A4FFC
